:020000040800F2
:10000000904B002089140008E50E0008E70E000858
:10001000EB0E0008EF0E0008F30E000800000000D1
:10002000000000000000000000000000990100082E
:10003000F90E000800000000DD010008DD330008B3
:100040009F1400089F1400089F1400089F140008C4
:100050009F1400089F1400089F1400089F140008B4
:100060009F1400089F1400089F1400089F140008A4
:100070009F1400089F1400089F1400089F14000894
:100080009F1400089F1400089F1400089F14000884
:100090009F1400089F1400089F1400089F14000874
:1000A0009F1400089F1400089F1400089F14000864
:1000B0009F1400089F1400089F1400089F14000854
:1000C0009F1400089F1400089F1400089F14000844
:1000D0009F140008E50400089F1400089F140008FE
:1000E0009F1400089F1400089F1400089F14000824
:1000F0009F1400089F1400089F1400089F14000814
:100100009F1400089F1400089F1400089F14000803
:100110009F1400089F1400089F1400089F140008F3
:100120009F1400089F1400089F1400089F140008E3
:100130009F1400089F1400089F1400089F140008D3
:100140009F1400089F1400089F1400089F140008C3
:100150009F1400089F1400089F1400089F140008B3
:100160009F1400089F1400089F1400089F140008A3
:100170009F1400089F1400089F1400089F14000893
:100180009F140008DFF80CD003F032FC0048004751
:1001900031020008904B0020224B19680868B0E833
:1001A000F00F80F30988BFF36F8F4FF0000080F3EA
:1001B00011884EF00D0E70470000000006480068E0
:1001C000006880F3088862B661B6BFF34F8FBFF353
:1001D0006F8F00DF00BF00BF08ED00E0EFF3098084
:1001E000BFF36F8F0F4B1A6820E9F00F106008B54E
:1001F0004FF0BF0080F31188BFF34F8FBFF36F8FB5
:1002000002F0A1FB4FF0000080F31188BDE8084028
:1002100019680868B0E8F00F80F30988BFF36F8FA2
:10022000704700BF70000020EFF3058070470000AA
:100230001CB501F097F900F0B5F9012000F0DFF8E6
:1002400000F09FFA002003210346B222CDE90010FE
:1002500012A1144802F0A5F8002003210346B2229F
:10026000CDE9001010A1124802F09BF800200321F4
:100270000346B222CDE900100EA1104802F091F819
:10028000002003210346B222CDE900100CA10E4844
:1002900002F087F802F0BBFC00201CBD4C65643105
:1002A00000000000270600084C65643200000000D2
:1002B000590600084C656433000000008D060008F4
:1002C0004C65643400000000BD06000870B50646A9
:1002D0000C46154600232A462146A948006801F02D
:1002E0006DFE08B1012070BD0020FCE71CB500BF09
:1002F0004FF6FF726946A3480068FFF7E7FF002347
:100300001A4601A9A048006801F058FE012805D14D
:100310009DF9040081B29D4801F0B5FA012002F078
:1003200061FAE5E770B588B004460D460022012168
:10033000284601F04FFC924908600022012128461E
:1003400001F048FC904908608D480068002852D0B0
:100350000846006800284ED00121112000F09AFFC5
:10036000072209218A4800F088FD07220A218848CF
:1003700000F083FD4FF48060019002208DF80800AA
:1003800001A9834800F0EEFC4FF4007001900220B8
:100390008DF809008DF8080001A97D4800F0E2FC05
:1003A00004940020ADF81400ADF81600ADF8180064
:1003B000ADF81C000C20ADF81A0004A9734801F038
:1003C000AFF9012240F22551704801F0E7FA2520EB
:1003D0008DF80C000F208DF80D0000208DF80E0018
:1003E00001208DF80F0003A800F0E3FB012167480E
:1003F00001F01EFA00E00026304608B070BD1CB5C2
:10040000044664214FF4E130FFF78CFF5D4908603A
:10041000002003464FF480725EA1CDE900405F48A2
:1004200001F0BFFF1CBDF7B50646154600232A465E
:1004300001A95548006801F075FC012807D1012485
:10044000012240F22771514801F0A8FA00E000248F
:100450002046FEBD2DE9F04106460D4617462C46C6
:1004600006E094F9001000223046FFF7DCFF641C20
:1004700020780028F5D1BDE8F0810FB410B59AB00E
:100480001DA819906846199A1C9903F063FB002077
:100490001990684603F084F884B2224669463948C8
:1004A0000068FFF7D7FF1AB010BC5DF814FB70B5F9
:1004B00004460D462A46214632480068FFF7CAFF27
:1004C000002070BD70B504460D4600235A1E21461B
:1004D0002B48006801F072FD08B1012070BD0020BA
:1004E000FCE770471CB50020019040F227712748B7
:1004F00001F08FFA01281FD10BE09DF8001023486E
:1005000001F0C1F900BF4021204801F06CFA012838
:10051000F9D101AA69461C48006801F0FAFD0128DA
:10052000EBD040F22771194801F0AAFA002240F2FC
:100530002771164801F032FA40F22551134801F0B4
:1005400068FA012810D1114801F0A1F9C0B2009059
:10055000002301AA69460A48006801F08CFC40F2B9
:1005600025510A4801F08CFA019838B14FF08050BB
:100570000B490860BFF34F8FBFF36F8F1CBD0000A6
:1005800000000020080000200400002000100140AE
:100590000000024053657269616C0000ED020008C2
:1005A00004ED00E01CB50121084600F02FFE4FF4D9
:1005B000C050009001208DF8040000208DF8060046
:1005C00001208DF8070002208DF805006946474894
:1005D00000F0C8FB0121022000F018FE032000906B
:1005E00001208DF8040000208DF8060001208DF810
:1005F000070002208DF8050069463D4800F0B2FB77
:100600004FF48051394800F029FC4FF4006137481D
:1006100000F024FC0121364800F022FC022134487D
:1006200000F01CFC1CBD08B502F026FB009012E097
:100630004FF480512D4800F011FC4FF46171684671
:1006400002F09BF84FF48051284800F009FC642127
:10065000684602F092F8EBE708B502F00DFB009057
:1006600013E04FF40061214800F0F8FB4FF4FA71F9
:10067000684602F082F84FF400611C4800F0F0FB7D
:100680004FF4FA71684602F078F8EAE708B502F02C
:10069000F3FA009011E00121154800F0E1FB4FF45E
:1006A000FA71684602F069F80121114800F0D6FBA2
:1006B0004FF4FA71684602F060F8ECE708B502F012
:1006C000DBFA009010E00221094800F0C7FB64212A
:1006D000684602F052F80221054800F0C1FB4FF4D1
:1006E0006171684602F049F8EDE700000000024041
:1006F000000402402DE9F04106460C4617461D460F
:100700002A4624A1204603F011FA0020BDE8F0811A
:100710002DE9F04107460D4690461E4632461DA182
:10072000284603F003FA002407E01C4850F8241080
:10073000284602F029FF601CC4B2184850F8240073
:100740000028F2D1BDE8F0812DE9F04105460C46C4
:1007500016461F4612480168204602F036FF002068
:10076000BDE8F08110B50F490F4800F001FA0F48BD
:1007700000F022F80E4800F01FF80E4800F01CF8B8
:1007800010BD10B503214FF47A7000F056F9FFF751
:10079000E9FF10BD20202020257300000C00002060
:1007A00024000020C5040008AF0400081845000814
:1007B000284500083845000870B504460025082083
:1007C00002F041FED149086008460068A0B102F07D
:1007D000E8FDCE48006804600020CC490968486004
:1007E000CA480068CA4909684860C8480068C849DA
:1007F000086002F0E5FD0125284670BD0146002095
:1008000000220AE00B78202B05D1012A04D0431CDA
:1008100058B2012200E00022491C0B78002BF1D1D4
:10082000012A01D1431E58B270472DE9F047804696
:100830000C4691460126B748006858BBB648B549F2
:10084000086022E0B348006800680768384602F094
:10085000A7FE0546605D202801D0605D80B92A466C
:100860003946204602F0BAFE50B92046FFF7C6FFCF
:10087000A84909680968097B884200D0002608E079
:10088000A44800684068A3490860A248006800289E
:10089000D8D100BF9F48006840B13EB99F4940464B
:1008A00002F093FE00209B49086029E09948006807
:1008B000B8B14FF48071404602F05BFE9548006885
:1008C000006843689348006800684A464146D0F88B
:1008D00008C02046E047064696B900208D490860CA
:1008E0000EE0207830B18D4B22468DA1404603F0BA
:1008F0001DF904E04FF48071404602F03AFE0026F4
:100900003046BDE8F08708B5002400BF874806469A
:1009100000BF00BF01216846FFF7D4FD0128F9D1CF
:1009200000234FF4967219468148006801F046FB97
:100930000128EED17F48007818B10121684600F007
:100940001CF99DF800000A2803D09DF800000D282E
:1009500047D17948006802F023FE87B239467648CD
:10096000006800F00AF973480078A8B97349744820
:10097000006802F01CFE50B17248006802F010FEE0
:1009800087B239466F48006800F0F7F803E00120AD
:100990006849087013E01DE000BF4FF4807267499A
:1009A0003046FFF742FF0546304602F0F9FD87B2B8
:1009B0003946304600F0E1F8002DEED100BF624824
:1009C000006802F0EDFD87B239465F48006800F02C
:1009D000D4F800BF00244FF48071584802F0C9FDDC
:1009E00023E09DF800000D281FD09DF80000082886
:1009F00003D09DF800007F2807D1002C15DD601E74
:100A0000C4B200204D4908550FE09DF90000202890
:100A10000BDB9DF900007E2807DCFF2C05DC9DF830
:100A2000000046490855601CC4B200231A46194606
:100A30003F48006801F076F96BE77CB504460D4647
:100A4000012001F007FA3A490860002003462246D7
:100A50003EA1CDE90050414801F0A3FC7CBD30B57A
:100A60000346002400200025156022E000E05B1C06
:100A70001D7815B11D78202DF9D100E05B1C1D7883
:100A800015B11D78202DF9D01D788DB1641C8C42D4
:100A90000FD1184603E015686D1C15605B1C1D78AE
:100AA00015B11D78202DF6D1156805B9002002E09A
:100AB00001E08C42DAD300BF30BD2DE9F04107469A
:100AC0000D4690461E460024324625A1284603F0D6
:100AD0002DF800BF1048044612E023A1284602F07A
:100AE00053FD20680168284602F04EFD1FA12846EC
:100AF00002F04AFD20684168284602F045FD64681E
:100B0000002CEAD10020BDE8F08100003C0000206C
:100B100038000020400000202C000020684500081C
:100B2000202027257327257300000000C80000201F
:100B3000340000202800002064450008C80100207F
:100B4000584500085C45000860450008436F6D6D1E
:100B5000616E64206C696E65000000000709000882
:100B60002020202025730000090000003A2000000A
:100B70000B4A10600B4A1160704770B504460D4671
:100B800029462046064A1268904770BD70B5044653
:100B90000D4629462046034A1268904770BD000062
:100BA000440000204800002032490143324A1160CD
:100BB000704770B5002100230F22C4781CB32E4C5F
:100BC000246804F4E064C4F5E064C4F30721C1F1CF
:100BD0000404E3B20A4144789C40E1B284781440B2
:100BE00021430C07210E254C05786155047804F04B
:100BF0001F050124AC4005786D11AD0005F1E0251D
:100C0000C5F8004109E0047804F01F050124AC4058
:100C10001B4D0678761145F8264070BD194A0A40EA
:100C20000243154B1B1F1A60704739B1124A121D3F
:100C300012680243104B1B1D1A6006E00E4A121D7B
:100C4000126882430C4B1B1D1A607047042808D1A0
:100C50004FF0E021096941F004014FF0E0221161F9
:100C600007E04FF0E021096921F004014FF0E02294
:100C7000116170470000FA050CED00E000E400E0AF
:100C800080E100E080FFFF1F10B504468C488442DD
:100C900008D10121084600F00EFB0021012000F0E0
:100CA0000AFB5EE08748844208D10121022000F05F
:100CB00002FB0021022000F0FEFA52E0824884424A
:100CC00008D10121042000F0F6FA0021042000F0F0
:100CD000F2FA46E07D48844208D10121082000F064
:100CE000EAFA0021082000F0E6FA3AE07848844267
:100CF00008D10121102000F0DEFA0021102000F0C0
:100D0000DAFA2EE07348844208D10121202000F055
:100D1000D2FA0021202000F0CEFA22E06E48844270
:100D200008D10121402000F0C6FA0021402000F047
:100D3000C2FA16E06948844208D10121802000F0FF
:100D4000BAFA0021802000F0B6FA0AE06448844232
:100D500007D10121801500F0AEFA0021A01500F0A6
:100D6000AAFA10BDF0B50A4600210023002400BFF6
:100D70003DE0012505FA01F3156805EA03049C42EC
:100D800034D105684F000326BE40B5430560157990
:100D90004E00B5400668354305601579012D02D037
:100DA0001579022D16D185684F000326BE40B54344
:100DB000856055794E00B540866835438560456845
:100DC00001268E40B5434560456896798E40B6B29F
:100DD00035434560C5684F000326BE40B543C56036
:100DE000D5794E00B540C6683543C560491C102909
:100DF000BFD3F0BD4FF6FF71016000210171417159
:100E00008171C171704708B54FF480320092009A29
:100E10000A430092009AC261C161009AC261C2692C
:100E20000092C269009208BD0246002013690B407F
:100E30000BB1012000E0002070470146086980B234
:100E400070470246002053690B400BB1012000E0BF
:100E5000002070470146486980B27047018370479F
:100E6000418370470AB1018300E0418370474161CB
:100E7000704742694A4042617047F0B50023002440
:100E80004D07ED0E02FA05F3CE1000F1200555F8DE
:100E900026504E07F70E0F26BE40B543CF1000F187
:100EA000200646F82750CE1000F1200555F82650B0
:100EB00045EA0304CE1000F1200545F82640F0BDB8
:100EC000000002400004024000080240000C024002
:100ED000001002400014024000180240001C0240B2
:100EE00000200240704700BFFEE700BFFEE700BFE2
:100EF000FEE700BFFEE7704770477047704700008D
:100F0000FA48006840F00100F84908600020F749FD
:100F100008310860F5480068F5490840F349086061
:100F2000F448091D0860081F006820F48020091F8C
:100F300008600020ED490C31086070470021EB4A41
:100F4000921C117011460870704710B501460022BE
:100F5000002300204A11012A02D1E44C236808E052
:100F6000022A03D1E14C7034236802E0DF4C743470
:100F7000236801F01F02012494401C400CB10120A1
:100F800000E0002010BD38B50020009000240025AE
:100F900000BF3120FFF7D9FF05460098401C0090A4
:100FA0000098B0F5A06F01D0002DF2D03120FFF7EE
:100FB000CCFF08B1012400E00024204638BD0146E2
:100FC0000020CA4A106820F0F80040EAC100106012
:100FD0007047C949086070470021C44A70321170D7
:100FE0001170012802D004280AD104E00121BF4A6F
:100FF0007032117005E00521BC4A7032117000E0BA
:1010000000BF00BF7047BD490860704770B5049CC1
:1010100041EA82150126C6EB530645EA064505431B
:1010200045EA0465B14E361D356070BDB2490866AB
:101030007047820142EA0172AC4B84331A607047F8
:10104000AD4988667047AC49C864704702460020C5
:10105000A64B0833186820F0EC6042EA01031843FD
:10106000A24B083318607047024600209F4B08339C
:10107000186820F0784042EA010318439B4B08337C
:101080001860704701460020984A0832106820F026
:10109000030008431060704794480830006800F06F
:1010A0000C00704701460020904A0832106820F07A
:1010B000F000084310607047014600208B4A083258
:1010C000106820F4E050084310607047014600208B
:1010D000864A0832106820F4604040EAC10010607F
:1010E0007047F0B5002100220024022500260223CB
:1010F0007E4F08373F6807F00C0121B1042905D065
:10110000082937D105E07E4F076036E07D4F076044
:1011100033E0764F3F1D3F68C7F38056734F3F1D46
:101120003F6807F03F036EB1764FB7FBF3F7DFF888
:10113000BCC10CF1040CDCF800C0CCF3881C07FB2C
:101140000CF40CE06E4FB7FBF3F7DFF8A0C10CF125
:10115000040CDCF800C0CCF3881C07FB0CF4634FD4
:101160003F1D3F68C7F301477F1C7D00B4FBF5F7C7
:10117000076002E0624F076000BF00BF5B4F0837A7
:101180003F6807F0F00109095F4F7A5C0768D740B4
:101190004760564F08373F6807F4E051890A5A4FB5
:1011A0007A5C4768D7408760504F08373F6807F43C
:1011B0006041490B544F7A5C4768D740C760F0BD27
:1011C000002100F44072B2F5407F0AD1474A08324C
:1011D000116821F4F8114D4A02401143434A083284
:1011E0001160424A70321268C0F30B031A433F4B3E
:1011F00070331A60704741494439086070473F496D
:1012000040390860704742490860704739B1374A31
:10121000303212680243354B30331A6006E0334AED
:10122000303212688243314B30331A60704739B123
:101230002E4A3432126802432C4B34331A6006E0D3
:101240002A4A343212688243284B34331A6070477A
:1012500039B1264A383212680243244B38331A60B7
:1012600006E0224A383212688243204B38331A6033
:10127000704739B11D4A4032126802431B4B40335C
:101280001A6006E0194A403212688243174B403315
:101290001A60704739B1154A443212680243134B41
:1012A00044331A6006E0114A4432126882430F4BFD
:1012B00044331A60704739B10C4A10321268024345
:1012C0000A4B10331A6006E0084A10321268824353
:1012D000064B10331A607047E1B1044A14321268A9
:1012E0000243024B14331A6019E000000038024038
:1012F000FFFFF6FE1030002400004742800E4742F8
:101300000024F40040787D014C000020FFFCFF0F1A
:101310005C0147425B4A126882435A4B1A6070472D
:1013200039B1584A121D12680243564B1B1D1A60F0
:1013300006E0544A121D12688243524B1B1D1A606C
:10134000704739B14F4A0C32126802434D4B0C338F
:101350001A6006E04B4A0C3212688243494B0C3348
:101360001A60704739B1474A103212680243454B40
:1013700010331A6006E0434A103212688243414B30
:1013800010331A60704739B13E4A3C32126802434A
:101390003C4B3C331A6006E03A4A3C3212688243C6
:1013A000384B3C331A60704739B1364A40321268C4
:1013B0000243344B40331A6006E0324A403212682E
:1013C0008243304B40331A60704739B12D4A443262
:1013D000126802432B4B44331A6006E0294A443218
:1013E00012688243274B44331A60704739B1254A4B
:1013F0004C3212680243234B4C331A6006E0214AF8
:101400004C32126882431F4B4C331A60704739B11B
:101410001C4A5032126802431A4B50331A6006E0DD
:10142000184A503212688243164B50331A60704784
:1014300039B1144AD21F12780243124BDB1F1A70C3
:1014400006E0104AD21F127882430E4BDB1F1A703F
:1014500070470C486030006840F080700949603186
:101460000860704701460020064A083A12680A40A0
:101470000AB1012000E0002070470249891F08706E
:10148000704700001438024005480047FEE7FEE7B9
:10149000FEE7FEE7FEE7FEE7FEE7FEE7FEE7FEE724
:1014A000850100080CB50020019000906B48006891
:1014B00040F480306949086000BF6848006800F463
:1014C000003000900198401C0190009818B90198D4
:1014D000B0F5A06FF1D16148006800F4003010B1A0
:1014E0000120009001E0002000900098012838D1F0
:1014F0005A480830006859490831086008460068B1
:1015000040F4004008600846006840F4A0500860BD
:101510005348091F0860081F006840F08070091FC9
:10152000086000BF4D48006800F000700028F9D046
:1015300040F203704B49086048480830006820F0CA
:1015400003004649083108600846006840F0020080
:10155000086000BF41480830006800F00C0008280F
:10156000F8D10CBD10B53D48006840F001003B4982
:1015700008600020394908310860384800683A4955
:101580000840364908603948091D0860081F00688E
:1015900020F48020091F0860002030490C310860C9
:1015A000FFF780FF4FF000603149086010BD70B553
:1015B00000200022022300240221284D08352D6836
:1015C00005F00C0020B1042806D0082834D107E02B
:1015D000284D294E356033E0284D274E35602FE0E9
:1015E0001E4D2D1D2D68C5F380541C4D2D1D2D68DD
:1015F00005F03F0154B1214DB5FBF1F5174E361DF5
:101600003668C6F3881605FB06F209E0194DB5FBEE
:10161000F1F5124E361D3668C6F3881605FB06F244
:101620000E4D2D1D2D68C5F301456D1C6B00B2FBE1
:10163000F3F5114E356003E00E4D0F4E356000BFDF
:1016400000BF064D08352D68C5F303150C4E705DBF
:10165000094D2D68C540084E356070BD0038024008
:10166000193C4005003C0240FFFFF6FE103000240C
:1016700008ED00E00024F4005C00002040787D01CB
:101680006000002010B50446F748844208D10121CB
:101690001020FFF767FE00211020FFF763FE3EE0F9
:1016A000F248844209D101214804FFF74AFE002193
:1016B0004FF40030FFF745FE31E0ED48844209D198
:1016C00001218804FFF73DFE00214FF48020FFF741
:1016D00038FE24E0E748844209D10121C804FFF71D
:1016E00030FE00214FF40020FFF72BFE17E0E24808
:1016F000844209D101210805FFF723FE00214FF4A0
:101700008010FFF71EFE0AE0DC48844207D1012169
:101710002020FFF727FE00212020FFF723FE10BD29
:101720002DE9FF4705460E460024A14600BFA0460E
:10173000B08900B100BF2C8A24F44054F0880443DF
:101740002C82AC8941F20C608443B0883189084313
:10175000718908430443AC81AC8A24F44074B08995
:101760000443AC826846FFF7BCFCBF48854202D008
:10177000C248854202D1DDF80C9001E0DDF8089006
:10178000A88900F4004040B109EBC90000EB091042
:1017900031684900B0FBF1F707E009EBC90000EB45
:1017A000091031688900B0FBF1F76420B7FBF0F055
:1017B00004012009642101FB1078A88900F400408D
:1017C00040B1322000EBC800B0FBF1F000F00700A0
:1017D000044308E0322000EB08106421B0FBF1F074
:1017E00000F00F0004432C81BDE8FF874FF4165131
:1017F000016000218180C18001810C214181002193
:101800008181704710B502460020108A20F4706074
:101810000B884C8823438C882343CC88234318436C
:10182000108210BD0021018041808180C1807047FD
:1018300021B1828942F40052828104E082894DF60E
:10184000FF731A4082817047028B02F47F42028349
:10185000028B0A430283704721B1828942F400421D
:10186000828103E08289C2F30E028281704721B136
:10187000828A42F40062828204E0828A4FF2FF731D
:101880001A4082827047C1F3080282807047014685
:101890008888C0F308007047028A4FF6F0731A4038
:1018A0000282028A0A430282704721B1828942F091
:1018B0000202828104E082894FF6FD731A40828120
:1018C000704782894FF2FF731A40828182890A43EE
:1018D00082817047028A4FF6DF731A400282028AC1
:1018E0000A430282704721B1028A42F48042028296
:1018F00004E0028A4BF6FF731A4002827047818926
:1019000041F001018181704721B1828A42F00802D1
:10191000828204E0828A4FF6F7731A40828270470F
:10192000028BD2B20283028B42EA01220283704709
:1019300021B1828A42F02002828204E0828A4FF63C
:10194000DF731A408282704721B1828A42F010020E
:10195000828204E0828A4FF6EF731A4082827047D7
:10196000828A4FF6FB731A408282828A0A438282FD
:10197000704721B1828A42F00202828204E0828AA8
:101980004FF6FD731A40828270471AB1838A0B4367
:10199000838202E0838A8B4383827047F0B50346DB
:1019A000002400260025002040F66A17B94200D125
:1019B00000BF1846C1F3421401F01F06012707FAC1
:1019C00006F5012C01D10C3004E0022C01D11030BD
:1019D00000E014301AB107682F43076002E007687F
:1019E000AF430760F0BD02460020B1F5007F00D193
:1019F00000BF13880B400BB1012000E000207047AE
:101A000001F40072B2F5007F00D100BFCA4302802A
:101A1000704770B50246002400230025002040F6E0
:101A20006A16B14200D100BFC1F3421501F01F0395
:101A3000012606FA03F3012D02D19689334006E010
:101A4000022D02D1168A334001E0968A33400C12EF
:101A5000012606FA04F41688344013B10CB10120B3
:101A600000E0002070BD0000001001400044004074
:101A700000480040004C004000500040001401406D
:101A800010B50022002340F66A14A14200D100BF25
:101A90000A1201249440A3B2DC43048010BD00F17B
:101AA000080141604FF0FF31816000F10801C16021
:101AB00001610021016070470021016170474268A7
:101AC0004A6093688B60936859609160086103680D
:101AD0005B1C0360704710B502460B685C1C0CB9B8
:101AE000106907E002F1080000E0406844682468DB
:101AF0009C42FAD944684C604C68A160886041609F
:101B00000A611468641C146010BD01460A69D1E9B9
:101B100001309860D1E9010358605068884201D1D2
:101B200088685060002008611068401E10601068CE
:101B30007047000070B505460E462C4601F031FC9A
:101B4000D4E90F12206801FB020060600020A0634E
:101B50002068A060E06B401E226C216800FB021030
:101B6000E060FF2084F8440084F845009EB92069B5
:101B700008B9012000E00020A8B904F1100001F02C
:101B8000B1F880B14FF08050FA490860BFF34F8F31
:101B9000BFF36F8F07E004F11000FFF780FF04F13F
:101BA0002400FFF77CFF01F00BFC012070BD2DE944
:101BB000F04106460D4617469846069C0DB924602E
:101BC00000E02760E663256401212046FFF7B2FFAD
:101BD000BDE8F0812DE9F84307460D4690460DB962
:101BE000002601E007FB05F606F1480001F02BFC9A
:101BF000044644B104F1480943464A46294638465A
:101C00000094FFF7D4FF2046BDE8F88370B5044682
:101C100001F0C7FB94F9455010E0606A08B9012053
:101C200000E0002038B904F1240001F05BF818B19D
:101C300001F0ECF800E003E0681E45B2002DECDC9A
:101C400000BFFF2084F8450001F0BAFB01F0A9FBBA
:101C500094F9445010E0206908B9012000E0002008
:101C600048B904F1100001F03DF808B101F0CEF8D8
:101C7000681E45B200E001E0002DECDC00BFFF2053
:101C800084F8440001F09CFB70BD70B5054601F07E
:101C900088FBA86BE96B884201D1012400E0002495
:101CA00001F08EFB204670BD2DE9F04104460F4641
:101CB00015464FF00008A66B206C40B9206860BB49
:101CC000606801F022F980460020606025E07DB95F
:101CD0003946226CA06801F033FC216CA0680844EE
:101CE000A060D4E90110884217D32068A06014E0F6
:101CF0003946226CE06801F023FC216CE068401A50
:101D0000E0602168E068884203D2216C6068401A74
:101D1000E060022D01D106B1761E701CA063404622
:101D2000BDE8F0812DE9FF4383B0074688461D4694
:101D30004FF000093C4600BF01F033FBA06BE16BA4
:101D4000884201D3022D28D12A4641462046FFF77A
:101D5000ABFF0646606A08B9012000E0002068B9C0
:101D600004F1240000F0BEFF88B14FF0805081499B
:101D70000860BFF34F8FBFF36F8F08E03EB14FF0A5
:101D800080507C490860BFF34F8FBFF36F8F01F025
:101D900017FB012007B0BDE8F083059818B901F0E2
:101DA0000FFB0020F6E7B9F1000F04D101A800F005
:101DB000FCFF4FF0010901F003FB00F0D8FC01F03B
:101DC000F0FA94F94400401C10B9002084F8440053
:101DD00094F94500401C10B9002084F8450001F03A
:101DE000EFFA05A901A800F0E7FFF0B92046FFF7D8
:101DF0004CFFA0B104F11000059900F051FF2046FE
:101E0000FFF704FF00F0E8FB002895D14FF0805069
:101E100058490860BFF34F8FBFF36F8F8CE72046A0
:101E2000FFF7F4FE00F0D8FB86E72046FFF7EEFE52
:101E300000F0D2FB0020ADE710B504464CB1002005
:101E400060602060E06000231A4619462046FFF7D4
:101E500069FF10BD2DE9F041044601260027224606
:101E600000210120FFF7B6FE05462846FFF7E4FFF4
:101E70002846BDE8F0812DE9F05F05468A46164602
:101E80001F462C4600BFBF21EFF3118081F311885C
:101E9000BFF34F8FBFF36F8F00BF8146A06BE16B25
:101EA000884201D3022F20D194F945B03A465146D9
:101EB0002046FFF7F9FE0BF1010070B9606A08B91E
:101EC000012000E0002068B904F1240000F00AFFBE
:101ED00040B13EB10120306004E00BF1010040B29E
:101EE00084F845004FF0010801E04FF0000800BF02
:101EF00089F3118800BF4046BDE8F09F2DE9F04707
:101F000005460E462C4600BFBF21EFF3118081F33A
:101F10001188BFF34F8FBFF36F8F00BF8046D4F897
:101F20003890E06B48451DD994F945A009F10100AE
:101F3000A0630AF1010070B9606A08B9012000E0ED
:101F4000002068B904F1240000F0CCFE40B13EB19D
:101F50000120306004E00AF1010040B284F845003D
:101F6000012700E0002700BF88F3118800BF384632
:101F7000BDE8F08704ED00E070B5054601F011FA08
:101F8000A86B08B9012400E0002401F019FA2046EA
:101F900070BD70B504460D46206C70B1216CE068D0
:101FA0000844E0606168E068884201D32068E0602E
:101FB0002846226CE16801F0C3FA70BD2DE9FF47A5
:101FC00082B0054689461E464FF0000A2C4600BFE7
:101FD00001F0E7F9D4F83880B8F1000F3BD0E7689A
:101FE00049462046FFF7D5FFDEB9A8F10100A063FE
:101FF000206810B900F0D2FF6060206908B90120A4
:1020000000E0002008BB04F1100000F06BFEE0B11E
:102010004FF0805089490860BFF34F8FBFF36F8F37
:1020200013E0E760606A08B9012000E0002060B9B1
:1020300004F1240000F056FE38B14FF080507F4983
:102040000860BFF34F8FBFF36F8F01F0B9F9012024
:1020500006B0BDE8F087049818B901F0B1F9002086
:10206000F6E7BAF1000F04D1684600F09EFE4FF08B
:10207000010A01F0A5F900F07AFB01F092F994F958
:102080004400401C10B9002084F8440094F9450035
:10209000401C10B9002084F8450001F091F904A912
:1020A000684600F089FE40BB2046FFF765FFF0B1AF
:1020B000206830B901F075F9606800F0AEFE01F0FB
:1020C0007FF904F12400049900F0EAFD2046FFF7AF
:1020D0009DFD00F081FA00287FF47AAF4FF0805028
:1020E00056490860BFF34F8FBFF36F8F70E72046EC
:1020F000FFF78CFD00F070FA6AE72046FFF786FDD7
:1021000000F06AFA2046FFF737FF0028EED00020E3
:102110009EE72DE9F05F05468A4616462C4600BF2D
:10212000BF21EFF3118081F31188BFF34F8FBFF30D
:102130006F8F00BF8046D4F83890B9F1000F21D0DE
:1021400094F944B051462046FFF723FFA9F101005E
:10215000A0630BF1010070B9206908B9012000E00B
:10216000002068B904F1100000F0BCFD40B13EB1A0
:102170000120306004E00BF1010040B284F844001B
:10218000012700E0002700BF88F3118800BF384610
:10219000BDE8F09F2DE9F047054689462C4600BF73
:1021A000BF21EFF3118081F31188BFF34F8FBFF38D
:1021B0006F8F00BF0746A06B48B1D4F80C8049462A
:1021C0002046FFF7E6FEC4F80C80012600E000265A
:1021D00000BF87F3118800BF3046BDE8F08770B5B7
:1021E000044601F0DEF8A56B01F0EAF8284670BD60
:1021F00070B50446254601F0D4F8D5E90E10461A0C
:1022000001F0DEF8304670BD0146886B704770B54E
:1022100004462546284601F069F970BD01468A6BDF
:102220000AB9012000E00020704701468A6BCB6BA1
:102230009A4201D1012000E00020704704ED00E047
:1022400010B5002407E004EB8401FE4A02EB810094
:10225000FFF725FC641C052CF5D3FB48FFF71FFC9A
:10226000FA48FFF71CFCFA48FFF719FCF948FFF79A
:1022700016FCF948FFF713FCF348F8490860F348E7
:10228000F749086010BD10B5044601F08AF8F5481A
:102290000068401CF3490860F348006840B9F24800
:1022A00004600846006801280DD1FFF7C9FF0AE065
:1022B000EE48006838B9EC480068C06AE16A8842B4
:1022C00001D8E9480460EA480068401CE849086011
:1022D00094F82C1001208840E64909680843E54934
:1022E0000860E16A01EB8101D64A02EB8100211D01
:1022F000FFF7E5FB01F064F8DC48006868B1DA48F4
:102300000068C06AE16A884207D24FF08050DA491B
:102310000860BFF34F8FBFF36F8F10BD2DE9FF5FD4
:1023200080460F469146DDE90E6A109CA9F1010036
:10233000216B01EB800B2BF0070B002507E0795D8B
:1023400004F134004155785D00B902E06D1C102D98
:10235000F5D300BF002143200155052E00D30426EC
:10236000E66266640020A064201DFFF7A5FB04F16F
:102370001800FFF7A1FB2461C6F10500A0616462AB
:102380000020E06484F8500041465846039A00F06B
:10239000DEFF2060BAF1000F01D0CAF80040BDE8AE
:1023A000FF9F2DE9FF4F83B0804689461746DDE940
:1023B00010ABB80001F047F8064656B1542001F0C2
:1023C00042F804460CB1266304E0304601F08EF872
:1023D00000E000246CB1CDE900AB02943A464946D6
:1023E0004046069BFFF79AFF2046FFF74CFF01256A
:1023F00001E04FF0FF35284607B0BDE8F08F974960
:102400000968096809B9012100E0002121B14FF0F4
:10241000FF319A4A116006E090490968C968C868A6
:10242000964A41681160704710B50446206B01F070
:102430005DF8204601F05AF810BD70B5054600F071
:10244000B0FF15B98848006800E028460446201D02
:10245000FFF75BFB78B9E06A00EB8000794951F83F
:10246000200040B994F82C10012088408149096867
:10247000814380480160A06A18B104F11800FFF799
:1024800044FB79480068844209D1211D7148FFF757
:1024900016FB7B480068401C7949086007E07148DA
:1024A0000068401E6F4908602046FFF7BDFF704876
:1024B0000068401C6E49086000F082FF6B480068AD
:1024C00090B169480068844208D14FF080506A4951
:1024D0000860BFF34F8FBFF36F8F05E000F061FF1F
:1024E000FFF78DFF00F06CFF70BD2DE9F041002774
:1024F00064480068002863D163480068451C62484E
:1025000005608DB95548D0F800805548006853499A
:1025100008605348C0F800805C480068401C5B4974
:102520000860FFF76CFF00BF5448006885423BD34A
:1025300000BF4A480068006808B9012000E0002098
:1025400020B14FF0FF304D4908602CE0434800684F
:10255000C068C4686668B54202D24848066022E096
:10256000201DFFF7D2FAA06A18B104F11800FFF796
:10257000CCFA94F82C10012088403E4909680843A1
:102580003C490860E16A01EB81012E4A02EB8100BF
:10259000211DFFF794FA3449E06A0968C96A884244
:1025A000C7D30127C5E700BF2F480068C06A00EB0A
:1025B0008000244951F82000012800D9012704E0B7
:1025C00033480068401C324908603248006800B156
:1025D00001273846BDE8F08170B50024002600F0E0
:1025E000E0FE28480068401E26490860084600684A
:1025F00000287AD11B480068002876D04FE01448A4
:10260000C068C46804F11800FFF77FFA201DFFF7C7
:102610007CFA94F82C100120884016490968084378
:1026200014490860E16A01EB8101064A02EB81006E
:10263000211DFFF744FA0C49E06A0968C96A88421B
:102640002DD329E0C80200202C03002040030020E5
:1026500054030020680300207C0300207400002045
:102660007800002080000020700000208C000020F6
:102670009C0000208800002004ED00E0A000002065
:102680007C000020A800002084000020980000208A
:1026900090000020940000200120FE490860FE48C0
:1026A000006808B9012000E000200028A7D00CB184
:1026B000FFF7A5FEF948056865B100BFFFF715FFF4
:1026C00010B10120F34908606D1E002DF6D10020E5
:1026D000F2490860EF48006838B101263007F04938
:1026E0000860BFF34F8FBFF36F8F00F069FE304675
:1026F00070BD2DE9F04105460E46EA480768EA48F4
:102700000068001DFFF701FA50B9E748006890F82B
:102710002C1001208840E54909688143E3480160A5
:10272000681C38B936B1E0480168091DE048FFF778
:10273000C6F91AE07C19DC4800684460BC4207D244
:10274000D9480168091DDB480068FFF7C4F90CE0AF
:10275000D5480168091DD8480068FFF7BCF9D7487B
:102760000068844201D2D5480460BDE8F081D448B5
:102770000068401CD249086070472DE9F0470446C4
:1027800088464FF00009FFF7F2FFC6480668206848
:1027900000EB08052068B04207D92068A8420BD991
:1027A000B54209D94FF0010906E02068A84201D8D6
:1027B000B54201D94FF001092560B9F1000F03D0EE
:1027C000A81B0021FFF795FFFFF706FF07463FB95B
:1027D0004FF08050B2490860BFF34F8FBFF36F8F47
:1027E000BDE8F08770B50446002544B1FFF7BFFF90
:1027F00000212046FFF77DFFFFF7EEFE05463DB9BD
:102800004FF08050A6490860BFF34F8FBFF36F8F22
:1028100070BD70B5044600F0C4FD14B9A24800684C
:1028200000E020460646F56A00F0CAFD284670BD65
:1028300070B5024600BFBF25EFF3118485F3118800
:10284000BFF34F8FBFF36F8F00BF214612B9964C75
:10285000246800E014462346D86A00BF81F311883B
:1028600000BF70BD2DE9F04780460D464FF00009CE
:10287000052D00D3042500F094FDB8F1000F02D11E
:102880008948006800E040460446666CAE4256D077
:10289000B5420BD98448006884420DD08248006854
:1028A000C06AA84208D84FF0010905E07E480068D8
:1028B000844201D14FF00109E76AE16A606C884205
:1028C00000D1E5626564A06900F0004010B9C5F16F
:1028D0000500A06107EB87017A4A02EB810160697C
:1028E000884201D1012000E00020E0B1201DFFF767
:1028F0000CF930B90120B8406C49096881436B4834
:10290000016094F82C100120884068490968084348
:1029100066490860E16A01EB81016A4A02EB8100C5
:10292000211DFFF7CCF8B9F1000F07D04FF0805010
:102930005B490860BFF34F8FBFF36F8F00BF00F09C
:102940003FFDBDE8F0875E48006818B1012051499D
:1029500008601DE000204F49086054480068B0FA44
:1029600080F0C0F11F0101EB8102564B03EB8200A6
:1029700042685268426000F108024368934202D103
:102980004268526842604268D268474B1A6000BF92
:10299000704770B5054600F004FD15B9424800685F
:1029A00000E028460446201DFFF7AFF878B9E06A3A
:1029B00000EB8000434951F8200040B994F82C10F6
:1029C0000120884039490968814338480160A06A7C
:1029D00018B104F11800FFF798F8211D3448FFF7EB
:1029E0006EF800F0EDFC3848006828B100F0D9FC22
:1029F000FFF705FD00F0E4FC2B480068844217D186
:102A00003148006840B14FF0805025490860BFF35D
:102A10004F8FBFF36F8F0BE0254800682B49096883
:102A2000884203D100202049086001E0FFF78BFFB6
:102A300070BD10B5014600200A461D4C5369A342E3
:102A400001D1012300E0002373B1134C936AA34228
:102A500001D1012300E0002333B9936A0BB90123AC
:102A600000E0002303B1012010BD70B505462C46DF
:102A700074B30D48006884424CD000F092FC2046AC
:102A8000FFF7D7FFF0B3201DFFF73FF894F82C10A5
:102A900001201EE09400002054030020900000203C
:102AA00004ED00E084000020700000208800002079
:102AB0007C0300207800002074000020A00000208B
:102AC000A8000020C80200208C0000208000002008
:102AD00020E08840F84909680843F7490860E16A3E
:102AE00001EB8101F54A02EB8100211DFEF7E7FFB2
:102AF000F349E06A0968C96A884209D34FF08050F7
:102B0000F04900E004E00860BFF34F8FBFF36F8F20
:102B100000F056FC70BD2DE9F04106460027344612
:102B200000BFBF21EFF3118081F31188BFF34F8FF6
:102B3000BFF36F8F00BF05462046FFF77AFF20B333
:102B4000E1480068E0B9DE49E06A0968C96A88427C
:102B500000D30127201DFEF7D8FF94F82C10012088
:102B60008840D54909680843D3490860E16A01EB08
:102B70008101D24A02EB8100211DFEF7A0FF04E093
:102B800004F11801D148FEF79AFF00BF85F31188C0
:102B900000BF3846BDE8F08170B523E0FFF7E7FDE0
:102BA000CB48006808B9012000E000200546FFF787
:102BB00013FDBDB900F0F5FBC548C068C468201D11
:102BC000FEF7A3FFC3480068401EC2490860C24820
:102BD0000068401EC049086000F0F2FB2046FFF785
:102BE00023FC00BFBC4800680028D7D170BD00BFDF
:102BF000FFF7D2FFB14800680128F9D94FF08050A3
:102C0000B0490860BFF34F8FBFF36F8FF0E77CB51B
:102C10008025B24800210B462A46CDE90010B0A11C
:102C2000B148FFF7BEFB0446012C14D100BFBF2002
:102C300080F31188BFF34F8FBFF36F8F00BF4FF04A
:102C4000FF30AA4908600120A94908600020A9496D
:102C5000086000F090FB7CBD10B500BFBF2080F382
:102C60001188BFF34F8FBFF36F8F00BF0020A049C3
:102C7000086000F095FB10BD9E4908687047002170
:102C80009C4A10687047934800687047014611B924
:102C90008B48006800E00846024602F134007047A5
:102CA00070B505460C468648016818312846FEF77F
:102CB00012FF01212046FFF71CFD70BD70B50646CE
:102CC0000C46154644F000407D49096888617C48FF
:102CD000016818313046FEF7F2FE01212846FFF761
:102CE00008FD70BD70B50646F068C46804F11800B0
:102CF000FEF70BFF74480068A8B9201DFEF705FF1A
:102D000094F82C10012088406B49096808436A49EF
:102D10000860E16A01EB8101684A02EB8100211D34
:102D2000FEF7CDFE04E004F118016848FEF7C7FE87
:102D30006349E06A0968C96A884204D9012501200B
:102D40006D49086000E00025284670BD2DE9F0417E
:102D500005460F4647F000402860EC682846FEF71D
:102D6000D4FE201DFEF7D1FE94F82C1001208840DF
:102D700051490968084350490860E16A01EB810143
:102D80004E4A02EB8100211DFEF799FE4C49E06A94
:102D90000968C96A884204D9012601205649086099
:102DA00000E000263046BDE8F08154490968016022
:102DB000504909684160704770B504460D4600F0FF
:102DC000F0FA4C4802682868401C08B9002619E04F
:102DD0004A4920680968884204D06068904201D856
:102DE00001260FE06068101A2968884209D2286815
:102DF0006168511A401A28602046FFF7D6FF002666
:102E000000E0012600F0DCFA304670BD01203A49AE
:102E1000086070472A490868704770B505462C4617
:102E2000002D71D02649E06A0968C96A88426BD2D0
:102E3000A06900F0004028B921480068C06AC0F1CC
:102E40000500A061E16A01EB81011C4A02EB8101EE
:102E50006069884201D1012000E0002050B3201DAC
:102E6000FEF753FE78B9E06A00EB8000134951F891
:102E7000200040B994F82C10012088400E490968C0
:102E800081430D4801600E480068C06AE06294F812
:102E90002C10012088400849096808430649086049
:102EA000E16A01EB8101054A02EB8100211DFEF779
:102EB00006FE29E024E0000088000020C80200206F
:102EC0007000002004ED00E0A80000205403002062
:102ED00068030020800000207C000020A400002067
:102EE00049444C4500000000EF2B0008A0000020E2
:102EF0008C00002084000020940000209800002016
:102F0000F9480068C06AE06270BD70B505462C469D
:102F10000026ADB3A06C401EA064616CE06A8842DC
:102F20002ED0A06C60BB201DFEF7EFFD78B9E06AE3
:102F300000EB8000ED4951F8200040B994F82C10C6
:102F400001208840EA4909688143E9480160606CD2
:102F5000E062E06AC0F10500A06194F82C10012045
:102F60008840E34909680843E1490860E16A01EBE8
:102F70008101DE4A02EB8100211DFEF7A0FD012642
:102F8000304670BDD84909688869D7490968C96A57
:102F9000C1F10501D44A126891617047D2480068B6
:102FA00030B1D149096801F14800896C491C0160C0
:102FB000CD480068704770B506460D4600F0F1F93F
:102FC000C9480068C06C88B90120C749096881F800
:102FD00050005DB101212846FFF78BFB4FF0805078
:102FE000C4490860BFF34F8FBFF36F8F00F0E8F95B
:102FF00000F0D7F9BC480068C46C4CB126B1002081
:10300000B9490968C86403E0601EB7490968C86423
:103010000020B549096881F8500000F0D1F9204638
:1030200070BD2DE9F0410746884614461D4600F064
:10303000B8F9AD48006890F85000022818D0AA49A5
:10304000096801F14C00C96CB94301600120A6492F
:10305000096881F850005DB101212846FFF749FB5E
:103060004FF08050A3490860BFF34F8FBFF36F8FBD
:1030700000F0A6F900F095F91CB19B480068C06CFF
:1030800020609948006890F85000012801D100267E
:1030900008E09549096801F14C00C96C21EA080172
:1030A0000160012600209049096881F8500000F075
:1030B00087F93046BDE8F0812DE9F04781460D469D
:1030C00016461F464FF0010A4C4600F06AF90FB150
:1030D000E06C386094F85080022084F85000052E8F
:1030E00017D2DFE806F01503070B0D00E06C28434C
:1030F000E0640EE0E06C401CE0640AE0E56408E097
:10310000B8F1020F01D0E56401E04FF0000A00E0E1
:1031100000BF00BFB8F1010F22D1201DFEF7F5FC62
:1031200094F82C10012088407149096808437049BF
:103130000860E16A01EB81016C4A02EB8100211D0C
:10314000FEF7BDFC6849E06A0968C96A884207D988
:103150004FF0805067490860BFF34F8FBFF36F8F08
:1031600000F02EF95046BDE8F0872DE9F84F824671
:103170000D4616461F46DDF828B001200090544643
:1031800000BFBF21EFF3118081F31188BFF34F8F90
:10319000BFF36F8F00BF81460FB1E06C386094F8C9
:1031A0005080022084F85000052E17D2DFE806F088
:1031B0001503070B0D00E06C2843E0640EE0E06CA3
:1031C000401CE0640AE0E56408E0B8F1020F01D0B9
:1031D000E56401E00020009000E000BF00BFB8F10E
:1031E000010F2DD144480068A8B9201DFEF78DFCC1
:1031F00094F82C10012088403D49096808433C4957
:103200000860E16A01EB8101384A02EB8100211D6F
:10321000FEF755FC04E004F118013848FEF74FFCB6
:103220003149E06A0968C96A884209D9BBF1000FCF
:1032300003D00120CBF8000002E0012030490860F3
:1032400000BF89F3118800BF0098BDE8F88F2DE911
:10325000F04105460E462C4600BFBF21EFF311801A
:1032600081F31188BFF34F8FBFF36F8F00BF074605
:1032700094F85080022084F85000E06C401CE06418
:10328000B8F1010F2AD11C480068A8B9201DFEF72B
:103290003CFC94F82C10012088401549096808432B
:1032A00013490860E16A01EB8101104A02EB8100D9
:1032B000211DFEF704FC04E004F118010F48FEF79D
:1032C000FEFB0949E06A0968C96A884206D916B155
:1032D0000120306002E001200949086000BF87F347
:1032E000118800BFBDE8F08170000020C8020020F6
:1032F0008800002004ED00E0A80000205403002016
:103300009400002070B5054615B90A48006800E031
:103310002846064600F045F896F85000022804D1E9
:10332000002086F85000012400E0002400F048F856
:10333000204670BD7000002000BFBF2080F31188C0
:10334000BFF34F8FBFF36F8F00BF00BFFEE7001FBB
:103350004FF080730360001F0160001F2B4B036060
:10336000143802602038704729484FF0E021486146
:1033700007200861704710B52648006840F47F00B8
:10338000244908600846006840F07F400860FFF765
:10339000EBFF002020490860FCF710FF002010BD63
:1033A000704700BFBF2080F31188BFF34F8FBFF37A
:1033B0006F8F00BF18480068401C174908607047AD
:1033C00015480068401E144908600846006820B986
:1033D000002080F3118800BF00BF704710B500BF08
:1033E000BF2080F31188BFF34F8FBFF36F8F00BFF3
:1033F000FFF77BF820B14FF0805006491C39086078
:1034000000BF002080F3118800BF10BD39330008D1
:10341000BFD4010020ED00E0AC000020434A22F0C0
:103420000700434A10600022414B5A6044F2F832D0
:10343000404B5A6000221A60014644F2F8324A605A
:103440001A460A6070472DE9F04104464FF0000823
:10345000FFF78DF93848006820B9FFF7DFFF01203A
:103460003549086044B1083404F0070020B104F085
:103470000700C0F108000444002C32D044F2F830B8
:1034800084422ED22A4F3846056801E02F462D6827
:103490006868A04202D228680028F7D125488542F2
:1034A0001FD0386800F10808286838606868001B79
:1034B000102810D92E196868001B70606C60716844
:1034C0001B4800E00068026852688A42FAD302682A
:1034D0003260066000BF194968680968081A174910
:1034E0000860FFF779F84046BDE8F08170B5064600
:1034F0003546B6B1083D2C46FFF739F961680C48EE
:1035000000E00068026852688A42FAD302682260CA
:1035100004600A4960680968084408490860FFF7C0
:103520005BF870BD0548006870477047980300203D
:10353000B0000020B8000020C4000020C00000201F
:1035400040EA01039B0703D009E008C9121F08C025
:10355000042AFAD203E011F8013B00F8013B521EA5
:10356000F9D27047D2B201E000F8012B491EFBD21C
:1035700070470022F6E710B513460A46044619467E
:10358000FFF7F0FF204610BD421E12F8013F002B4E
:10359000FBD111F8013B02F8013B002BF9D1704738
:1035A000421C10F8011B0029FBD1801A704710B58E
:1035B000002200E0521C835C8C5CA34201D1002BF2
:1035C000F8D1D8B2E1B2401A10BD034611F8012B70
:1035D00000F8012B002AF9D11846704730B505468E
:1035E0000020034600E05B1C934205D2EC5CC85C03
:1035F000201A01D1002CF6D130BD30B50B46014662
:1036000000202022012409E021FA02F59D4205D381
:1036100003FA02F5491B04FA02F52844151EA2F12B
:103620000102F1DC30BD2DE9F05F05460020924635
:103630009B4688460646814640241BE02846414674
:103640004746224600F0F5F953465A46C01A9141C2
:1036500010D311461846224600F0DCF92D1A67EB0C
:1036600001084F4622460120002100F0D3F917EB54
:1036700000094E41201EA4F10104DFDC484631461A
:103680002A464346BDE8F09F2DE9FE4F804681EA79
:103690000300C00F0C46009021F0004123F00045CC
:1036A000B8EB0200A94105D24046214690461C468F
:1036B0000B46024623F00040104347D0270DC7F3C6
:1036C0000A00C3F30A510290401A019040286BDAB5
:1036D000C3F3130040F4801B0098924620B10023EE
:1036E000D2EB030A63EB0B0B01985946C0F1400281
:1036F000504600F08FF906460D4650465946019A4D
:1037000000F0A7F910EB08006141002487EA11528C
:1037100084EAE7731A4340D0009A62B3019A012AFF
:103720004FEA075215DC001B61EB02014FF000422B
:1037300002EA0752CDE90042001C41F580113246F1
:103740002B4600F0A5F903B0BDE8F08F40462146B6
:10375000F9E7001B61EB0201001C41F58013001822
:103760005B412018A2F5001747EB030140EAD57032
:10377000B6196D4111E06D084FEA360645EAC0758D
:103780004FEA0752001B61EB0201001C41F580115A
:1037900049084FEA30000019514132462B4603B028
:1037A000BDE8F04F00F067B9009801224000002307
:1037B000D0EB020263EBE073009821464FEAE0741D
:1037C000B8EB000061EB0401E9E783F000435BE73D
:1037D00081F0004158E72DE9FE4F81EA030404F02F
:1037E000004421F0004100944FF0000B23F000430F
:1037F00050EA01045ED052EA03045BD0C3F30A54DA
:10380000C1F30A552C44A4F2F3340194A0FB0254F2
:10381000C1F3130141F48011C3F3130343F4801384
:1038200001FB024400FB034E840A970A44EA8154D8
:1038300047EA8357A4FB076802958D0A05FB0785B5
:103840004FEA932C04FB0C542705029D4FEA0658BF
:1038500047EA1637B5EB08056EEB070C870E920E9C
:1038600047EA811742EA8312A7FB0201B6EB0B017C
:1038700064EB00042B0D43EA0C335E1844EB1C5040
:10388000DA465146E7FB0201C5F313044FEA0B3356
:1038900043EA14534FEA0432019C43EA0603A4F1BD
:1038A0000C040294009CCDE900B400F0F1F803B0E0
:1038B000BDE8F08F00200146F9E72DE9F04D81EADF
:1038C000030404F0004B21F0004514464FF0000AB9
:1038D00023F0004150EA050220D054EA01021DD035
:1038E000C5F30A570246C5F31303C1F31300C1F32E
:1038F0000A5640F4801543F48013A7EB0608101B0A
:10390000D64608F2FD3873EB050002D308F1010832
:1039100001E092185B41B8F1000F03DA0020014684
:10392000BDE8F08D00204FF48011064684460EE07D
:10393000171B73EB050705D3121B63EB0503064347
:103940004CEA010C49084FEA300092185B4150EAFA
:103950000107EDD152EA030012D082EA040083EAA3
:103960000501084305D0101BAB4106D201220023FC
:1039700006E000224FF0004302E06FF00102531016
:103980001AEB06004CEB085110EB0A0041EB0B015F
:10399000BDE8F04D00F06FB8C1F30A52C1F3130156
:1039A00040F2FF3341F480119A4202DA00200146CE
:1039B000704740F233439A42A2F2334202DC524251
:1039C00000F037B800F026B830B5002904DB4FF01E
:1039D0000044404264EB0101002B04DB4FF0004443
:1039E000524264EB0303994208BF904230BD00008D
:1039F000064C074D06E0E06840F0010394E807003C
:103A000098471034AC42F6D3FCF7C0FB0C470008D3
:103A10002C470008202A04DB203A00FA02F100209B
:103A200070479140C2F1200320FA03F319439040FC
:103A30007047202A04DB203A21FA02F00021704767
:103A400021FA02F3D040C2F1200291400843194606
:103A50007047202A06DBCB17203A41FA02F043EAEE
:103A6000E07306E041FA02F3D040C2F12002914037
:103A700008431946704710B5002B08DA401C41F185
:103A8000000192185B411A4301D120F0010010BDE2
:103A90002DE9F04D92469B4611B1B1FA81F202E058
:103AA000B0FA80F220329046FFF7B4FF04460F468A
:103AB00040EA0A0041EA0B0153465A46084313D034
:103AC000114653EA010019D0C8F140025046FFF7F1
:103AD000B0FF05460E46504659464246FFF79AFF4C
:103AE000084305D0012004E020463946BDE8F08DAA
:103AF0000020054346EAE0762C4337430A986305E5
:103B0000E40AA0EB08000022FD0A44EA47540A3008
:103B100002D500200146E9E7010510196941DDE9F8
:103B2000084500196941BDE8F04DA4E70FB4084B02
:103B300010B504A902AA039800F0E0F8044602A90F
:103B4000002000F0DEFC204610BC5DF814FB0000F5
:103B50000345000837B514460846064B6A46214619
:103B600000F038F904466946002000F0CFFC2046FA
:103B70003EBD00000D45000802E008C8121F08C144
:103B8000002AFAD170477047002001E001C1121FDE
:103B9000002AFBD1704700002DE9FF5FDDE902201C
:103BA000010DDDF838B0024318D044F61050A1F2F0
:103BB000FF3141430D140F98012820D0A5EB0B00D5
:103BC000401C5FEA000A4FF00004474EDFF81C91EA
:103BD000A046504616D5CAF1000728E00F980124E8
:103BE00043A2012808D0002100980F9BC0E90021C2
:103BF000C0E90243BDE8FF9F6FEA0B01F4E7CBF198
:103C00000000DEE7074612E0F80707D022463346F9
:103C100040464946FFF7DFFD804689462246334647
:103C200010461946FFF7D7FD04460E467F10002FB9
:103C3000EAD1DDE90201BAF1000F42464B4602DA51
:103C4000FFF7C9FD01E0FFF738FE04460E460022EB
:103C5000284BFFF7B9FE03D84FF0FF30014607E0CD
:103C60000022254B20463146FFF70EFDFFF794FE5C
:103C7000102409E0002C0ADB0A220023FFF7D3FC02
:103C8000019B30321A55641E50EA0102F2D1641CC5
:103C9000019AC4F1110314440F9A012A03D001229E
:103CA00008430DD10AE0084304D000204FF0110B67
:103CB0000F9080E7A3EB0B056D1E0DE05B4504DD67
:103CC0004FF0000205F1010504E003DA4FF00002B5
:103CD000A5F10105002AECD000980F99C0E9023146
:103CE000C0E9004586E70000000024400000F03FE6
:103CF000300000000000F0430000E03F2DE9F84FE5
:103D00009946924688460546002706E025280AD0AF
:103D100051464A4690476D1C7F1C28780028F5D1F3
:103D20003846BDE8F88F002315F8011F18462E29E4
:103D300015D115F8011F04232A290DD06FF02F0289
:103D40002978A1F13004092C09D800EB800002EB9E
:103D5000400008446D1CF3E758F8040B6D1C2A78EA
:103D6000002ADDD0632A07D0732A0FD010465146AF
:103D70004A4690477F1C2AE018F8042B8DF8002053
:103D800000218DF801106E46012103E058F8046B04
:103D90004FF0FF315A074FF0000401D409E0641CD2
:103DA00084420BDA8C42FADB325D002AF7D105E05F
:103DB000641C8C42FCDB305D0028F9D1274404E010
:103DC00016F8010B51464A469047641EF8D26D1C06
:103DD000A3E700002DE9FF4F95B09B4689460646B4
:103DE00000250FE2252877D100242746F84A012133
:103DF000059400E0044316F8013F203B01FA03F06C
:103E00001042F7D130782A2811D06FF02F03307884
:103E1000A0F13002092A16D8059A44F0020402EBF8
:103E2000820203EB42021044761C0590EFE759F83A
:103E3000042B0592002A03DA504244F40054059002
:103E400044F00204761C30782E2816D116F8010FA3
:103E500044F004042A280DD06FF02F023078A0F12E
:103E60003003092B09D807EB870302EB4303C7187C
:103E7000761CF3E759F8047B761C30786C280FD059
:103E800006DC4C2817D068280DD06A2814D104E02D
:103E9000742810D07A280FD10DE044F400140AE001
:103EA00044F4801401E044F440147278824202D158
:103EB00004F58014761C761C307866280BD013DC51
:103EC000582877D009DC002875D04528F6D0462838
:103ED000F4D047281AD19DE118E0632835D0642832
:103EE00079D0652812D195E1702873D008DC672855
:103EF000F1D069286FD06E280DD06F2806D1B5E0BB
:103F000073282CD0752875D0782874D05A46179904
:103F100090476D1C75E1C4F30250022809D00328B4
:103F20000DD0D9F8001004280DD00D6009F1040956
:103F300067E1D9F80010EA17C1E90052F6E7D9F8AD
:103F400000100D80F2E70D70F0E719F8041B8DF8F2
:103F5000001000208DF80100EA46012003E059F826
:103F600004AB4FF0FF3061074FF0000102D40DE0C9
:103F700008F101018846B9420FDA8045F8DB1AF8EA
:103F800008100029F4D108E008F1010188468142B7
:103F9000FADB1AF808100029F6D105985B46A0EB69
:103FA000080721463846179A00F094FA284400EB97
:103FB000080507E04DE029E10DE01AF8010B5A462B
:103FC00017999047B8F10108F7D25B462146384669
:103FD000179A13E142E00A220092C4F302524FF012
:103FE000000A022A08D059F804CB032A4FEAEC71E0
:103FF0000AD00DE029E02AE009F1070121F00702CB
:10400000F2E802C1914609E00FFA8CFC4FEAEC712C
:10401000042A03D14FFA8CFC4FEAEC71002907DA2D
:104020000A460021DCF1000C61EB02012D2202E0C6
:10403000220504D52B228DF80420012203E0E2079B
:1040400001D02022F7E7904659E00A2102E0102231
:104050000DE010214FF0000A00910BE010224FF00C
:10406000000A44F004040827009203E008224FF0FD
:10407000000A0092C4F30252022A05D059F804CB78
:104080000021032A08D009E009F1070121F0070205
:10409000F2E802C1914605E01FFA8CFC042A01D126
:1040A0000CF0FF0C4FF00008220728D5702806D02E
:1040B000009B83F0100353EA0A0305D00EE0402270
:1040C0008DF80420012208E05CEA010206D03022CB
:1040D0008DF804208DF8050002229046009B83F0A5
:1040E000080353EA0A030AD15CEA010201D162071C
:1040F00005D530228DF804204FF001087F1E582886
:1041000004D034A003900EA802900DE036A0F9E789
:1041100053466046009AFFF786FA84460398825C0D
:104120000298401E029002705CEA0100F0D10298F1
:1041300006A9081A00F1200A600702D524F4803489
:1041400000E00127574502DDA7EB0A0000E0002050
:1041500000EB0A01009005984144401A0590E003E5
:1041600006D45B462146179A059800F0B3F905443A
:10417000002706E001A85A46C05D179990476D1CBC
:104180007F1C4745F6DBE0030CD55B462146179ABA
:10419000059800F09FF9054404E030205A4617992D
:1041A00090476D1C0099481E00900029F5DC08E03E
:1041B000029802995A460078491C02911799904733
:1041C0006D1CBAF10001AAF1010AF1DC65E1000001
:1041D00009280100303132333435363738396162DD
:1041E00063646566000000003031323334353637A1
:1041F00038394142434445460000000000F058F978
:104200000544761C307800287FF4ECAD19B02846C0
:10421000BDE8F08F620700D4062709F1070222F0FB
:10422000070CFCE80223E14603F000485FEA080CB3
:1042300002D00FF2702C0DE05FEA045C02D50FF2A1
:10424000682C07E05FEAC47C02D00FF2602C01E02A
:10425000AFF2700C4FF0FF3823F00043CDF850C0A0
:1042600065280CD006DC452809D046281DD04728F3
:104270003DD13DE0662818D067287ED138E0002186
:10428000112F01DB112000E0781CCDE9000106A907
:104290000EA8FFF781FCDDE90F010E9A03910021C2
:1042A000009207F1010A04914DE04FF000400097A1
:1042B000CDE9011006A90EA8FFF76EFCDDE90F029B
:1042C00003920E9B11990022DDF80CA0009304923A
:1042D00011B9791C00EB010AB7EB0A0004D4C0F154
:1042E000FF3007F1010A0490AAEB0700019044E0B7
:1042F000012F00DA01270021112F01DD112000E03C
:104300003846CDE9000106A90EA8FFF745FCDDE916
:104310000F010E9A0391002104910092BA462107E1
:104320000CD40399514500DA8A46BAF1010F05DD34
:10433000009AAAF10101515C302908D0B84202DA92
:1043400010F1040F06DA0121CDE9011015E0AAF100
:104350000101E9E7002805DC049901440491AAEB76
:10436000000102E0411C514500DD8A460499401AD3
:10437000401C01904FF000400290200704D40198A7
:10438000504501DBCDF8048000208DF84F000298E5
:104390000DF14F07B0F1004F25D02B200E90029861
:1043A0004FF0020800280CDA404202902D200E90B7
:1043B00007E00A210298FFF720F93031029007F850
:1043C000011DB8F10001A8F10108F2DC02980028F3
:1043D000EFD1791E0E980870307800F0200040F080
:1043E000450007F8020D12A8C01B00F10708149839
:1043F000007800B1012000EB0A01019801EBE071A7
:1044000005984144401A401E0590E00306D45B46DF
:104410002146179A059800F05DF805441498007835
:1044200018B15A46179990476D1CE00324D55B4696
:104430002146179A059800F04DF805441CE00498B1
:10444000002807DBDDE90301884203DD0098405CBA
:10445000179901E0179930205A469047049805F1C2
:104460000105401C04900198401E019004D12E20AB
:104470005A46179990476D1CBAF10001AAF1010A3A
:10448000DDDC05E017F8010B5A46179990476D1CC3
:10449000B8F10001A8F10108F4DC5B462146179A47
:1044A0000598ABE62D0000002B0000002000000066
:1044B0002DE9F041044600251E461746880404D421
:1044C00005E039462020B0476D1C641EF9D528460A
:1044D000BDE8F0812DE9F041044600251E469046D6
:1044E000C80301D5302700E02027880404D505E063
:1044F00041463846B0476D1C641EF9D52846BDE8D4
:10450000F0810A68531C0B60107070470A68531CD6
:104510000B60107070470000A4460008C8450008F2
:10452000F506000800000000A8460008F045000855
:104530001107000800000000B0460008DC45000834
:10454000490700080000000004470008B8460008BA
:10455000BB0A00080000000000470008F046000801
:10456000E4460008E0460008206E6F742072656320
:104570006F676E697365642E20456E7465722027BF
:1045800068656C702720746F2076696577206120DC
:104590006C697374206F6620617661696C61626C0E
:1045A0006520636F6D6D616E64732E0D0A000000EF
:1045B00020094465763A0953544D3332463230353A
:1045C00052475436200D0A004E69636520746F20EF
:1045D0006D65657420796F75210D0A00436C656106
:1045E00072205465726D696E616C2E0D0A000000B8
:1045F00044657669636520696E666F726D61746982
:104600006F6E2E0D0A00000020094370753A0941B3
:10461000524D2033322D62697420436F7274657875
:104620002D4D330D0A000000200952616D3A093109
:104630003238202B2034204B6279746573206F66EA
:10464000205352414D0D0A0020094D656D3A093144
:10465000204D62797465206F6620466C6173682016
:104660006D656D6F72790D0A0000000020094672B9
:1046700065713A2009313230204D487A206D6178D9
:104680002C31353020444D4950532F312E323520B6
:10469000444D4950532F4D487A0D0A001B5B481B6F
:1046A0005B4A000068690000696E666F00000000E8
:1046B000636C6561720000004C6973747320616CF7
:1046C0006C207468652072656769737465726564CF
:1046D00020636F6D6D616E64732E0D0A0000000023
:1046E0000D0A00003C5465726D696E616C3E2000DD
:1046F000496E707574207061737377643A000000BE
:104700006A68670068656C70000000002C4700084C
:1047100000000020C8000000783B0008F4470008B3
:10472000C8000020C84A0000883B000800000000C4
:104730000000000000000000B04500080846000826
:104740006C460008484600082846000800000000A3
:104750009C460008000000004845000800000000DA
:10476000000000002C0000200000000000000000FD
:10477000000000000000000000000000010203042F
:104780000102030406070809000E270700000000C5
:1047900000000000010203040607080900000000F1
:1047A0000000000000000000000000000000000009
:1047B00000000000000000000000000000000000F9
:1047C00000000000000000000000000000000000E9
:1047D0000000000000000000AAAAAAAA0000000031
:1047E000000000000000000000000000F84300008E
:0447F00000000000C5
:040000050800018569
:00000001FF
