:020000040800F2
:10000000904A002079140008D50E0008D70E000889
:10001000DB0E0008DF0E0008E30E00080000000001
:10002000000000000000000000000000990100082E
:10003000E90E000800000000DD0100088F3600080E
:100040008F1400088F1400088F1400088F14000804
:100050008F1400088F1400088F1400088F140008F4
:100060008F1400088F1400088F1400088F140008E4
:100070008F1400088F1400088F1400088F140008D4
:100080008F1400088F1400088F1400088F140008C4
:100090008F1400088F1400088F1400088F140008B4
:1000A0008F1400088F1400088F1400088F140008A4
:1000B0008F1400088F1400088F1400088F14000894
:1000C0008F1400088F1400088F1400088F14000884
:1000D0008F140008E10400088F1400088F14000832
:1000E0008F1400088F1400088F1400088F14000864
:1000F0008F1400088F1400088F1400088F14000854
:100100008F1400088F1400088F1400088F14000843
:100110008F1400088F1400088F1400088F14000833
:100120008F1400088F1400088F1400088F14000823
:100130008F1400088F1400088F1400088F14000813
:100140008F1400088F1400088F1400088F14000803
:100150008F1400088F1400088F1400088F140008F3
:100160008F1400088F1400088F1400088F140008E3
:100170008F1400088F1400088F1400088F140008D3
:100180008F140008DFF80CD003F090FD0048004702
:1001900031020008904A0020224B19680868B0E834
:1001A000F00F80F30988BFF36F8F4FF0000080F3EA
:1001B00011884EF00D0E70470000000006480068E0
:1001C000006880F3088862B661B6BFF34F8FBFF353
:1001D0006F8F00DF00BF00BF08ED00E0EFF3098084
:1001E000BFF36F8F0F4B1A6820E9F00F106008B54E
:1001F0004FF0BF0080F31188BFF34F8FBFF36F8FB5
:1002000002F08EFC4FF0000080F31188BDE808403A
:1002100019680868B0E8F00F80F30988BFF36F8FA2
:10022000704700BF70000020EFF3058070470000AA
:100230001CB501F08FF900F0B3F9012000F0DDF8F2
:1002400000F09BFA002003210346B222CDE9001002
:1002500012A1144802F095F9002003210346B222AE
:10026000CDE9001010A1124802F08BF90020032103
:100270000346B222CDE900100EA1104802F081F928
:10028000002003210346B222CDE900100CA10E4844
:1002900002F077F902F0A2FD00201CBD4C6564312C
:1002A00000000000230600084C65643200000000D6
:1002B000550600084C6564330000000087060008FE
:1002C0004C65643400000000B506000870B50646B1
:1002D0000C4615462A462146A848006801F066FEED
:1002E00008B1012070BD0020FCE71CB500BF4FF62F
:1002F000FF726946A2480068FFF7E8FF002201A9E3
:10030000A048006801F052FE012805D19DF90400C3
:1003100081B29D4801F0AFFA012002F050FBE6E700
:1003200070B588B004460D4600220121284601F030
:1003300049FC9249086000220121284601F042FC54
:10034000904908608D480068002852D0084600682F
:1003500000284ED00121112000F094FF072209212E
:100360008A4800F082FD07220A21884800F07DFDBE
:100370004FF48060019002208DF8080001A98348A5
:1003800000F0E8FC4FF40070019002208DF80900A5
:100390008DF8080001A97D4800F0DCFC04940020E1
:1003A000ADF81400ADF81600ADF81800ADF81C005B
:1003B0000C20ADF81A0004A9734801F0A9F9012234
:1003C00040F22551704801F0E1FA25208DF80C002B
:1003D0000F208DF80D0000208DF80E0001208DF803
:1003E0000F0003A800F0DDFB0121674801F018FAB7
:1003F00000E00026304608B070BD1CB504466421FC
:100400004FF4E130FFF78CFF5D49086000200346A0
:100410004FF480725EA1CDE900405F4802F0B1F870
:100420001CBDF7B50646154600232A4601A95548C6
:10043000006801F06FFC012807D10124012240F27D
:100440002771514801F0A2FA00E000242046FEBDC9
:100450002DE9F04106460D4617462C4606E094F974
:10046000001000223046FFF7DCFF641C20780028D3
:10047000F5D1BDE8F0810FB410B59AB01DA8199060
:100480006846199A1C9903F0C5FC0020199068462B
:1004900003F0E0F984B22246694639480068FFF764
:1004A000D7FF1AB010BC5DF814FB70B504460D46BA
:1004B0002A46214632480068FFF7CAFF002070BD77
:1004C00070B504460D464FF0FF3221462B480068B8
:1004D00001F06CFD08B1012070BD0020FCE7704701
:1004E0001CB50020019040F22771274801F089FADD
:1004F00001281FD10BE09DF80010234801F0BBF943
:1005000000BF4021204801F066FA0128F9D101AA74
:1005100069461C48006801F0ECFE0128EBD040F26F
:100520002771194801F0A4FA002240F227711648F9
:1005300001F02CFA40F22551134801F062FA01282B
:1005400010D1114801F09BF9C0B20090002301AA1C
:1005500069460A48006801F086FC40F225510A48C5
:1005600001F086FA019838B14FF080500B490860CD
:10057000BFF34F8FBFF36F8F1CBD00000000002042
:10058000080000200400002000100140000002408C
:1005900053657269616C0000EB02000804ED00E035
:1005A0001CB50121084600F029FE4FF4C050009010
:1005B00001208DF8040000208DF8060001208DF840
:1005C000070002208DF805006946464800F0C2FB8E
:1005D0000121022000F012FE0320009001208DF87E
:1005E000040000208DF8060001208DF8070002208D
:1005F0008DF8050069463C4800F0ACFB4FF4805193
:10060000384800F023FC4FF40061364800F01EFC2F
:100610000121354800F01CFC0221334800F016FC93
:100620001CBD08B502F00EFC009012E04FF48051A2
:100630002C4800F00BFC40F26C71684602F08AF91D
:100640004FF48051274800F003FC6421684602F013
:1006500081F9EBE708B502F0F5FB009012E04FF4EA
:100660000061204800F0F2FB40F26C71684602F035
:1006700071F94FF400611B4800F0EAFB6421684601
:1006800002F068F9EBE708B502F0DCFB009010E03F
:100690000121154800F0DCFB40F26C71684602F065
:1006A00059F90121104800F0D1FB6421684602F09D
:1006B00051F9EDE708B502F0C5FB009011E0022109
:1006C000094800F0C3FB4FF4FA71684602F042F9A2
:1006D0000221054800F0BCFB4FF4FA71684602F0B5
:1006E00039F9ECE700000240000402402DE9F04136
:1006F00006460C4617461D462A4624A1204603F00E
:1007000075FB0020BDE8F0812DE9F04107460D465C
:1007100090461E4632461DA1284603F067FB002482
:1007200007E01C4850F82410284603F087F8601CA6
:10073000C4B2184850F824000028F2D1BDE8F08176
:100740002DE9F04105460C4616461F461248016841
:10075000204603F094F80020BDE8F08110B50F4961
:100760000F4800F0FDF90F4800F022F80E4800F0A5
:100770001FF80E4800F01CF810BD10B503214FF40F
:100780007A7000F054F9FFF7E9FF10BD2020202017
:10079000257300000C00002024000020C104000884
:1007A000AB040008F847000808480008184800088B
:1007B00070B504460025082002F09FFFD04908606C
:1007C00008460068A0B102F045FFCD48006804600B
:1007D0000020CB4909684860C9480068C9490968D0
:1007E0004860C7480068C749086002F042FF012519
:1007F000284670BD0146002000220AE00B78202B1D
:1008000005D1012A04D0431C58B2012200E0002285
:10081000491C0B78002BF1D1012A01D1431E58B29B
:1008200070472DE9F04780460C4691460126B648B0
:10083000006858BBB548B449086022E0B248006877
:1008400000680768384603F005F80546605D202813
:1008500001D0605D80B92A463946204603F018F879
:1008600050B92046FFF7C6FFA74909680968097B08
:10087000884200D0002608E0A34800684068A249EA
:100880000860A14800680028D8D100BF9E480068D1
:1008900040B13EB99E49404602F0F1FF00209A491E
:1008A000086029E098480068B8B14FF4807140466C
:1008B00002F0B9FF944800680068436892480068F5
:1008C00000684A464146D0F808C02046E047064640
:1008D00096B900208C4908600EE0207830B18C4B2E
:1008E00022468CA1404603F081FA04E04FF4807167
:1008F000404602F098FF00263046BDE8F087C2B0BF
:10090000002400BF8648064600BF00BF012141A861
:10091000FFF7D6FD0128F9D14FF4967181480068A0
:1009200001F0CEFB0128F0D17F48007818B10121F9
:1009300041A800F01AF99DF804010A2803D09DF897
:1009400004010D2847D17948006802F083FF87B27F
:1009500039467648006800F008F973480078A8B96D
:1009600001A97348006802F07CFF50B1714800682B
:1009700002F070FF87B239466E48006800F0F5F863
:1009800003E001206849087013E01DE000BF4FF448
:10099000807201A93046FFF744FF0546304602F059
:1009A00059FF87B23946304600F0DFF8002DEED10E
:1009B00000BF6148006802F04DFF87B239465E48CB
:1009C000006800F0D2F800BF00244FF4807101A845
:1009D00002F029FF23E09DF804010D281FD09DF8A7
:1009E0000401082803D09DF804017F2807D1002CBA
:1009F00015DD601EC4B2002001A908550FE09DF965
:100A0000040120280BDB9DF904017E2807DCFF2C64
:100A100005DC9DF8040101A90855601CC4B200233F
:100A20001A4619463F48006801F074F96DE77CB535
:100A300004460D46012001F005FA3A4908600020FD
:100A4000034622463DA1CDE90050404801F099FD02
:100A50007CBD30B50346002400200025156022E04F
:100A600000E05B1C1D7815B11D78202DF9D100E048
:100A70005B1C1D7815B11D78202DF9D01D788DB126
:100A8000641C8C420FD1184603E015686D1C15607C
:100A90005B1C1D7815B11D78202DF6D1156805B9A0
:100AA000002002E001E08C42DAD300BF30BD2DE926
:100AB000F04107460D4690461E460024324624A1CA
:100AC000284603F093F900BF1048044612E022A123
:100AD000284602F0B3FE20680168284602F0AEFE08
:100AE0001EA1284602F0AAFE20684168284602F0AE
:100AF000A5FE6468002CEAD10020BDE8F08100006A
:100B00003C00002038000020400000202C00002085
:100B1000484800082020272573272573000000007F
:100B2000C8000020340000202800002044480008AD
:100B3000384800083C48000840480008436F6D6D85
:100B4000616E64206C696E6500000000FF0800089B
:100B50002020202025730000090000003A2000001A
:100B60000B4A10600B4A1160704770B504460D4681
:100B700029462046064A1268904770BD70B5044663
:100B80000D4629462046034A1268904770BD000072
:100B9000440000204800002032490143324A1160DD
:100BA000704770B5002100230F22C4781CB32E4C6F
:100BB000246804F4E064C4F5E064C4F30721C1F1DF
:100BC0000404E3B20A4144789C40E1B284781440C2
:100BD00021430C07210E254C05786155047804F05B
:100BE0001F050124AC4005786D11AD0005F1E0252D
:100BF000C5F8004109E0047804F01F050124AC4069
:100C00001B4D0678761145F8264070BD194A0A40FA
:100C10000243154B1B1F1A60704739B1124A121D4F
:100C200012680243104B1B1D1A6006E00E4A121D8B
:100C3000126882430C4B1B1D1A607047042808D1B0
:100C40004FF0E021096941F004014FF0E022116109
:100C500007E04FF0E021096921F004014FF0E022A4
:100C6000116170470000FA050CED00E000E400E0BF
:100C700080E100E080FFFF1F10B504468C488442ED
:100C800008D10121084600F00EFB0021012000F0F0
:100C90000AFB5EE08748844208D10121022000F06F
:100CA00002FB0021022000F0FEFA52E0824884425A
:100CB00008D10121042000F0F6FA0021042000F000
:100CC000F2FA46E07D48844208D10121082000F074
:100CD000EAFA0021082000F0E6FA3AE07848844277
:100CE00008D10121102000F0DEFA0021102000F0D0
:100CF000DAFA2EE07348844208D10121202000F066
:100D0000D2FA0021202000F0CEFA22E06E48844280
:100D100008D10121402000F0C6FA0021402000F057
:100D2000C2FA16E06948844208D10121802000F00F
:100D3000BAFA0021802000F0B6FA0AE06448844242
:100D400007D10121801500F0AEFA0021A01500F0B6
:100D5000AAFA10BDF0B50A4600210023002400BF06
:100D60003DE0012505FA01F3156805EA03049C42FC
:100D700034D105684F000326BE40B54305601579A0
:100D80004E00B5400668354305601579012D02D047
:100D90001579022D16D185684F000326BE40B54354
:100DA000856055794E00B540866835438560456855
:100DB00001268E40B5434560456896798E40B6B2AF
:100DC00035434560C5684F000326BE40B543C56046
:100DD000D5794E00B540C6683543C560491C102919
:100DE000BFD3F0BD4FF6FF71016000210171417169
:100DF0008171C171704708B54FF480320092009A3A
:100E00000A430092009AC261C161009AC261C2693C
:100E10000092C269009208BD0246002013690B408F
:100E20000BB1012000E0002070470146086980B244
:100E300070470246002053690B400BB1012000E0CF
:100E4000002070470146486980B2704701837047AF
:100E5000418370470AB1018300E0418370474161DB
:100E6000704742694A4042617047F0B50023002450
:100E70004D07ED0E02FA05F3CE1000F1200555F8EE
:100E800026504E07F70E0F26BE40B543CF1000F197
:100E9000200646F82750CE1000F1200555F82650C0
:100EA00045EA0304CE1000F1200545F82640F0BDC8
:100EB000000002400004024000080240000C024012
:100EC000001002400014024000180240001C0240C2
:100ED00000200240704700BFFEE700BFFEE700BFF2
:100EE000FEE700BFFEE7704770477047704700009D
:100EF000FA48006840F00100F84908600020F7490E
:100F000008310860F5480068F5490840F349086071
:100F1000F448091D0860081F006820F48020091F9C
:100F200008600020ED490C31086070470021EB4A51
:100F3000921C117011460870704710B501460022CE
:100F4000002300204A11012A02D1E44C236808E062
:100F5000022A03D1E14C7034236802E0DF4C743480
:100F6000236801F01F02012494401C400CB10120B1
:100F700000E0002010BD38B50020009000240025BE
:100F800000BF3120FFF7D9FF05460098401C0090B4
:100F90000098B0F5A06F01D0002DF2D03120FFF7FE
:100FA000CCFF08B1012400E00024204638BD0146F2
:100FB0000020CA4A106820F0F80040EAC100106022
:100FC0007047C949086070470021C44A70321170E7
:100FD0001170012802D004280AD104E00121BF4A7F
:100FE0007032117005E00521BC4A7032117000E0CA
:100FF00000BF00BF7047BD490860704770B5049CD2
:1010000041EA82150126C6EB530645EA064505432B
:1010100045EA0465B14E361D356070BDB2490866BB
:101020007047820142EA0172AC4B84331A60704708
:10103000AD4988667047AC49C864704702460020D5
:10104000A64B0833186820F0EC6042EA010318430D
:10105000A24B083318607047024600209F4B0833AC
:10106000186820F0784042EA010318439B4B08338C
:101070001860704701460020984A0832106820F036
:10108000030008431060704794480830006800F07F
:101090000C00704701460020904A0832106820F08A
:1010A000F000084310607047014600208B4A083268
:1010B000106820F4E050084310607047014600209B
:1010C000864A0832106820F4604040EAC10010608F
:1010D0007047F0B5002100220024022500260223DB
:1010E0007E4F08373F6807F00C0121B1042905D075
:1010F000082937D105E07E4F076036E07D4F076055
:1011000033E0764F3F1D3F68C7F38056734F3F1D56
:101110003F6807F03F036EB1764FB7FBF3F7DFF898
:10112000BCC10CF1040CDCF800C0CCF3881C07FB3C
:101130000CF40CE06E4FB7FBF3F7DFF8A0C10CF135
:10114000040CDCF800C0CCF3881C07FB0CF4634FE4
:101150003F1D3F68C7F301477F1C7D00B4FBF5F7D7
:10116000076002E0624F076000BF00BF5B4F0837B7
:101170003F6807F0F00109095F4F7A5C0768D740C4
:101180004760564F08373F6807F4E051890A5A4FC5
:101190007A5C4768D7408760504F08373F6807F44C
:1011A0006041490B544F7A5C4768D740C760F0BD37
:1011B000002100F44072B2F5407F0AD1474A08325C
:1011C000116821F4F8114D4A02401143434A083294
:1011D0001160424A70321268C0F30B031A433F4B4E
:1011E00070331A60704741494439086070473F497D
:1011F00040390860704742490860704739B1374A42
:10120000303212680243354B30331A6006E0334AFD
:10121000303212688243314B30331A60704739B133
:101220002E4A3432126802432C4B34331A6006E0E3
:101230002A4A343212688243284B34331A6070478A
:1012400039B1264A383212680243244B38331A60C7
:1012500006E0224A383212688243204B38331A6043
:10126000704739B11D4A4032126802431B4B40336C
:101270001A6006E0194A403212688243174B403325
:101280001A60704739B1154A443212680243134B51
:1012900044331A6006E0114A4432126882430F4B0D
:1012A00044331A60704739B10C4A10321268024355
:1012B0000A4B10331A6006E0084A10321268824363
:1012C000064B10331A607047E1B1044A14321268B9
:1012D0000243024B14331A6019E000000038024048
:1012E000FFFFF6FE1030002400004742800E474208
:1012F0000024F40040787D014C000020FFFCFF0F2B
:101300005C0147425B4A126882435A4B1A6070473D
:1013100039B1584A121D12680243564B1B1D1A6000
:1013200006E0544A121D12688243524B1B1D1A607C
:10133000704739B14F4A0C32126802434D4B0C339F
:101340001A6006E04B4A0C3212688243494B0C3358
:101350001A60704739B1474A103212680243454B50
:1013600010331A6006E0434A103212688243414B40
:1013700010331A60704739B13E4A3C32126802435A
:101380003C4B3C331A6006E03A4A3C3212688243D6
:10139000384B3C331A60704739B1364A40321268D4
:1013A0000243344B40331A6006E0324A403212683E
:1013B0008243304B40331A60704739B12D4A443272
:1013C000126802432B4B44331A6006E0294A443228
:1013D00012688243274B44331A60704739B1254A5B
:1013E0004C3212680243234B4C331A6006E0214A08
:1013F0004C32126882431F4B4C331A60704739B12C
:101400001C4A5032126802431A4B50331A6006E0ED
:10141000184A503212688243164B50331A60704794
:1014200039B1144AD21F12780243124BDB1F1A70D3
:1014300006E0104AD21F127882430E4BDB1F1A704F
:1014400070470C486030006840F080700949603196
:101450000860704701460020064A083A12680A40B0
:101460000AB1012000E0002070470249891F08707E
:10147000704700001438024005480047FEE7FEE7C9
:10148000FEE7FEE7FEE7FEE7FEE7FEE7FEE7FEE734
:10149000850100080CB50020019000906B480068A1
:1014A00040F480306949086000BF6848006800F473
:1014B000003000900198401C0190009818B90198E4
:1014C000B0F5A06FF1D16148006800F4003010B1B0
:1014D0000120009001E0002000900098012838D100
:1014E0005A480830006859490831086008460068C1
:1014F00040F4004008600846006840F4A0500860CE
:101500005348091F0860081F006840F08070091FD9
:10151000086000BF4D48006800F000700028F9D056
:1015200040F203704B49086048480830006820F0DA
:1015300003004649083108600846006840F0020090
:10154000086000BF41480830006800F00C0008281F
:10155000F8D10CBD10B53D48006840F001003B4992
:1015600008600020394908310860384800683A4965
:101570000840364908603948091D0860081F00689E
:1015800020F48020091F0860002030490C310860D9
:10159000FFF780FF4FF000603149086010BD70B563
:1015A00000200022022300240221284D08352D6846
:1015B00005F00C0020B1042806D0082834D107E03B
:1015C000284D294E356033E0284D274E35602FE0F9
:1015D0001E4D2D1D2D68C5F380541C4D2D1D2D68ED
:1015E00005F03F0154B1214DB5FBF1F5174E361D05
:1015F0003668C6F3881605FB06F209E0194DB5FBFF
:10160000F1F5124E361D3668C6F3881605FB06F254
:101610000E4D2D1D2D68C5F301456D1C6B00B2FBF1
:10162000F3F5114E356003E00E4D0F4E356000BFEF
:1016300000BF064D08352D68C5F303150C4E705DCF
:10164000094D2D68C540084E356070BD0038024018
:10165000193C4005003C0240FFFFF6FE103000241C
:1016600008ED00E00024F4005C00002040787D01DB
:101670006000002010B50446F748844208D10121DB
:101680001020FFF767FE00211020FFF763FE3EE009
:10169000F248844209D101214804FFF74AFE0021A3
:1016A0004FF40030FFF745FE31E0ED48844209D1A8
:1016B00001218804FFF73DFE00214FF48020FFF751
:1016C00038FE24E0E748844209D10121C804FFF72D
:1016D00030FE00214FF40020FFF72BFE17E0E24818
:1016E000844209D101210805FFF723FE00214FF4B0
:1016F0008010FFF71EFE0AE0DC48844207D101217A
:101700002020FFF727FE00212020FFF723FE10BD39
:101710002DE9FF4705460E460024A14600BFA0461E
:10172000B08900B100BF2C8A24F44054F0880443EF
:101730002C82AC8941F20C608443B0883189084323
:10174000718908430443AC81AC8A24F44074B089A5
:101750000443AC826846FFF7BCFCBF48854202D018
:10176000C248854202D1DDF80C9001E0DDF8089016
:10177000A88900F4004040B109EBC90000EB091052
:1017800031684900B0FBF1F707E009EBC90000EB55
:10179000091031688900B0FBF1F76420B7FBF0F065
:1017A00004012009642101FB1078A88900F400409D
:1017B00040B1322000EBC800B0FBF1F000F00700B0
:1017C000044308E0322000EB08106421B0FBF1F084
:1017D00000F00F0004432C81BDE8FF874FF4165141
:1017E000016000218180C18001810C2141810021A3
:1017F0008181704710B502460020108A20F4706085
:101800000B884C8823438C882343CC88234318437C
:10181000108210BD0021018041808180C18070470D
:1018200021B1828942F40052828104E082894DF61E
:10183000FF731A4082817047028B02F47F42028359
:10184000028B0A430283704721B1828942F400422D
:10185000828103E08289C2F30E028281704721B146
:10186000828A42F40062828204E0828A4FF2FF732D
:101870001A4082827047C1F3080282807047014695
:101880008888C0F308007047028A4FF6F0731A4048
:101890000282028A0A430282704721B1828942F0A1
:1018A0000202828104E082894FF6FD731A40828130
:1018B000704782894FF2FF731A40828182890A43FE
:1018C00082817047028A4FF6DF731A400282028AD1
:1018D0000A430282704721B1028A42F480420282A6
:1018E00004E0028A4BF6FF731A4002827047818936
:1018F00041F001018181704721B1828A42F00802E2
:10190000828204E0828A4FF6F7731A40828270471F
:10191000028BD2B20283028B42EA01220283704719
:1019200021B1828A42F02002828204E0828A4FF64C
:10193000DF731A408282704721B1828A42F010021E
:10194000828204E0828A4FF6EF731A4082827047E7
:10195000828A4FF6FB731A408282828A0A4382820D
:10196000704721B1828A42F00202828204E0828AB8
:101970004FF6FD731A40828270471AB1838A0B4377
:10198000838202E0838A8B4383827047F0B50346EB
:10199000002400260025002040F66A17B94200D135
:1019A00000BF1846C1F3421401F01F06012707FAD1
:1019B00006F5012C01D10C3004E0022C01D11030CD
:1019C00000E014301AB107682F43076002E007688F
:1019D000AF430760F0BD02460020B1F5007F00D1A3
:1019E00000BF13880B400BB1012000E000207047BE
:1019F00001F40072B2F5007F00D100BFCA4302803B
:101A0000704770B50246002400230025002040F6F0
:101A10006A16B14200D100BFC1F3421501F01F03A5
:101A2000012606FA03F3012D02D19689334006E020
:101A3000022D02D1168A334001E0968A33400C12FF
:101A4000012606FA04F41688344013B10CB10120C3
:101A500000E0002070BD0000001001400044004084
:101A600000480040004C004000500040001401407D
:101A700010B50022002340F66A14A14200D100BF35
:101A80000A1201249440A3B2DC43048010BD00F18B
:101A9000080141604FF0FF31816000F10801C16031
:101AA00001610021016070470021016170474268B7
:101AB0004A6093688B60936859609160086103681D
:101AC0005B1C0360704710B502460B685C1C0CB9C8
:101AD000106907E002F1080000E0406844682468EB
:101AE0009C42FAD944684C604C68A16088604160AF
:101AF0000A611468641C146010BD01460A69D1E9CA
:101B000001309860D1E9010358605068884201D1E2
:101B100088685060002008611068401E10601068DE
:101B20007047000070B505460E462C4601F092FD48
:101B3000D4E90F12206801FB020060600020A0635E
:101B40002068A060E06B401E226C216800FB021040
:101B5000E060FF2084F8440084F845009EB92069C5
:101B600008B9012000E00020A8B904F1100001F03C
:101B70009FF980B14FF08050FA490860BFF34F8F52
:101B8000BFF36F8F07E004F11000FFF780FF04F14F
:101B90002400FFF77CFF01F06CFD012070BD2DE9F2
:101BA000F04106460D4617469846069C0DB924603E
:101BB00000E02760E663256401212046FFF7B2FFBD
:101BC000BDE8F0812DE9F84307460D4690460DB972
:101BD000002601E007FB05F606F1480001F08DFD47
:101BE000044644B104F1480943464A46294638466A
:101BF0000094FFF7D4FF2046BDE8F88370B5044693
:101C000001F028FD94F9455010E0606A08B9012000
:101C100000E0002038B904F1240001F049F918B1BE
:101C200001F0E1F900E003E0681E45B2002DECDCB4
:101C300000BFFF2084F8450001F01BFD01F00AFD04
:101C400094F9445010E0206908B9012000E0002018
:101C500048B904F1100001F02BF908B101F0C3F903
:101C6000681E45B200E001E0002DECDC00BFFF2063
:101C700084F8440001F0FDFC70BD70B5054601F02C
:101C8000E9FCA86BE96B884201D1012400E0002443
:101C900001F0EFFC204670BD2DE9F04104460F46EF
:101CA00015464FF00008A66B206C40B9206860BB59
:101CB000606801F021FA80460020606025E07DB96F
:101CC0003946226CA06801F095FD216CA06808449B
:101CD000A060D4E90110884217D32068A06014E006
:101CE0003946226CE06801F085FD216CE068401AFD
:101CF000E0602168E068884203D2216C6068401A85
:101D0000E060022D01D106B1761E701CA063404632
:101D1000BDE8F0812DE9FF4383B0074688461D46A4
:101D20004FF000093C4600BF01F094FCA06BE16B52
:101D3000884201D3022D28D12A4641462046FFF78A
:101D4000ABFF0646606A08B9012000E0002068B9D0
:101D500004F1240001F0ACF888B14FF080508149C3
:101D60000860BFF34F8FBFF36F8F08E03EB14FF0B5
:101D700080507C490860BFF34F8FBFF36F8F01F035
:101D800078FC012007B0BDE8F083059818B901F090
:101D900070FC0020F6E7B9F1000F04D101A801F0B2
:101DA000F1F84FF0010901F064FC00F0CDFD01F005
:101DB00051FC94F94400401C10B9002084F8440000
:101DC00094F94500401C10B9002084F8450001F04A
:101DD00050FC05A901A801F0DCF8F0B92046FFF796
:101DE0004CFFA0B104F11000059901F03FF8204626
:101DF000FFF704FF00F0DDFC002895D14FF0805084
:101E000058490860BFF34F8FBFF36F8F8CE72046B0
:101E1000FFF7F4FE00F0CDFC86E72046FFF7EEFE6C
:101E200000F0C7FC0020ADE710B504464CB100201F
:101E300060602060E06000231A4619462046FFF7E4
:101E400069FF10BD2DE9F041044601260027224616
:101E500000210120FFF7B6FE05462846FFF7E4FF04
:101E60002846BDE8F0812DE9F05F05468A46164612
:101E70001F462C4600BFBF21EFF3118081F311886C
:101E8000BFF34F8FBFF36F8F00BF8146A06BE16B35
:101E9000884201D3022F20D194F945B03A465146E9
:101EA0002046FFF7F9FE0BF1010070B9606A08B92E
:101EB000012000E0002068B904F1240000F0F8FFE0
:101EC00040B13EB10120306004E00BF1010040B2AE
:101ED00084F845004FF0010801E04FF0000800BF12
:101EE00089F3118800BF4046BDE8F09F2DE9F04717
:101EF00005460E462C4600BFBF21EFF3118081F34B
:101F00001188BFF34F8FBFF36F8F00BF8046D4F8A7
:101F10003890E06B48451DD994F945A009F10100BE
:101F2000A0630AF1010070B9606A08B9012000E0FD
:101F3000002068B904F1240000F0BAFF40B13EB1BE
:101F40000120306004E00AF1010040B284F845004D
:101F5000012700E0002700BF88F3118800BF384642
:101F6000BDE8F08704ED00E070B5054601F072FBB6
:101F7000A86B08B9012400E0002401F07AFB204698
:101F800070BD70B504460D46206C70B1216CE068E0
:101F90000844E0606168E068884201D32068E0603E
:101FA0002846226CE16801F025FC70BD2DE9F7415F
:101FB00083B005460F464FF000082C4600BF01F0E5
:101FC00049FBA66BF6B139462046FFF7DAFF701ED3
:101FD000A063206908B9012000E0002060B904F185
:101FE000100000F065FF38B14FF08050F8490860EC
:101FF000BFF34F8FBFF36F8F01F03BFB012006B0A3
:10200000BDE8F081059818B901F033FB0020F6E730
:10201000B8F1000F04D101A800F0B4FF4FF001089F
:1020200001F027FB00F090FC01F014FB94F9440050
:10203000401C10B9002084F8440094F94500401C6D
:1020400010B9002084F8450001F013FB05A901A890
:1020500000F09FFFF0B92046FFF786FFA0B104F122
:102060002400059900F002FF2046FFF7C7FD00F0AD
:10207000A0FB0028A3D14FF08050D5490860BFF3E2
:102080004F8FBFF36F8F9AE72046FFF7B7FD00F041
:1020900090FB94E72046FFF7B1FD00F08AFB204655
:1020A000FFF762FF00288AD00020A8E701464A6AAD
:1020B00022B10A6B1268C2F1050000E000207047EF
:1020C0002DE9F34182B0054600272C46B84600BFF3
:1020D00001F0C0FAA66BFEB1701EA063206810B9B3
:1020E00001F0A6F86060206908B9012000E0002036
:1020F00060B904F1100000F0DBFE38B14FF0805001
:10210000B3490860BFF34F8FBFF36F8F01F0B1FA8F
:10211000012004B0BDE8F081039818B901F0A9FAD4
:102120000020F6E71FB9684600F02CFF012701F0F8
:10213000A0FA00F009FC01F08DFA94F94400401C6B
:1021400010B9002084F8440094F94500401C10B9EF
:10215000002084F8450001F08CFA03A9684600F0DD
:1021600018FF40BB2046FFF7FFFEF0B1206838B9EA
:1021700001F070FA606800F03DFF804601F079FAE6
:1021800004F12400039900F071FE2046FFF736FDAC
:1021900000F00FFB00289BD14FF080508C49086065
:1021A000BFF34F8FBFF36F8F92E72046FFF726FDF7
:1021B00000F0FFFA8CE72046FFF720FD00F0F9FA67
:1021C0002046FFF7D1FE002882D0B8F1000F0BD0D7
:1021D00001F040FA2046FFF769FF06463146606885
:1021E00000F0C7FF01F045FA002092E72DE9F74320
:1021F00082B005460F464FF000082C4600BF01F0A4
:1022000029FAD4F83890B9F1000F1ED0E6683946A3
:102210002046FFF7B6FEE660606A08B9012000E0DC
:10222000002060B904F1240000F042FE38B14FF004
:10223000805067490860BFF34F8FBFF36F8F01F085
:1022400018FA012005B0BDE8F083049818B901F030
:1022500010FA0020F6E7B8F1000F04D1684600F04C
:1022600091FE4FF0010801F004FA00F06DFB01F05F
:10227000F1F994F94400401C10B9002084F844009E
:1022800094F94500401C10B9002084F8450001F085
:10229000F0F904A9684600F07CFEF0B92046FFF78B
:1022A00063FEA0B104F12400049900F0DFFD204694
:1022B000FFF7A4FC00F07DFA0028A0D14FF0805079
:1022C00043490860BFF34F8FBFF36F8F97E72046F6
:1022D000FFF794FC00F06DFA91E72046FFF78EFCC3
:1022E00000F067FA2046FFF73FFE002887D0002065
:1022F000A8E72DE9F05F05468A4616462C4600BF42
:10230000BF21EFF3118081F31188BFF34F8FBFF32B
:102310006F8F00BF8046D4F83890B9F1000F21D0FC
:1023200094F944B051462046FFF72BFEA9F1010075
:10233000A0630BF1010070B9206908B9012000E029
:10234000002068B904F1100000F0B2FD40B13EB1C8
:102350000120306004E00BF1010040B284F8440039
:10236000012700E0002700BF88F3118800BF38462E
:10237000BDE8F09F2DE9F047054689462C4600BF91
:10238000BF21EFF3118081F31188BFF34F8FBFF3AB
:102390006F8F00BF0746A06B48B1D4F80C80494648
:1023A0002046FFF7EEFDC4F80C80012600E0002671
:1023B00000BF87F3118800BF3046BDE8F08770B5D5
:1023C000044601F047F9A56B01F053F9284670BDAA
:1023D00004ED00E070B50446254601F03BF9D5E96F
:1023E0000E10461A01F045F9304670BD0146886B63
:1023F000704770B504462546284601F0D1F970BDF6
:1024000001468A6B0AB9012000E0002070470146AE
:102410008A6BCB6B9A4201D1012000E0002070470B
:1024200010B5002407E004EB8401FE4A02EB8100B2
:10243000FFF72DFB641C052CF5D3FB48FFF727FBAA
:10244000FA48FFF724FBFA48FFF721FBF948FFF7AA
:102450001EFBF948FFF71BFBF348F8490860F348F7
:10246000F749086010BD10B5044601F0F3F8F548CF
:102470000068401CF3490860F348006840B9F2481E
:1024800004600846006801280DD1FFF7C9FF0AE083
:10249000EE48006838B9EC480068C06AE16A8842D2
:1024A00001D8E9480460EA480068401CE84908602F
:1024B00094F82C1001208840E64909680843E54952
:1024C0000860E16A01EB8101D64A02EB8100211D1F
:1024D000FFF7EDFA01F0CDF8DC48006868B1DA48A2
:1024E0000068C06AE16A884207D24FF08050DA493A
:1024F0000860BFF34F8FBFF36F8F10BD2DE9FF5FF3
:1025000080460F469146DDE90E6A109CA9F1010054
:10251000216B01EB800B2BF0070B002507E0795DA9
:1025200004F134004155785D00B902E06D1C102DB6
:10253000F5D300BF002143200155052E00D304260A
:10254000E66266640020A064201DFFF7ADFA04F186
:102550001800FFF7A9FA2461C6F10500A0616462C2
:102560000020E06484F8500041465846039A01F088
:1025700042F82060BAF1000F01D0CAF80040BDE86F
:10258000FF9F2DE9FF4F85B0804689461746DDE95C
:1025900012ABB80001F0B1F8064656B1542001F074
:1025A000ACF804460CB1266304E0304601F0F8F8BC
:1025B00000E000247CB10020CDE900ABCDE9024071
:1025C0003A4649464046089BFFF798FF2046FFF7EA
:1025D0004AFF012501E04FF0FF35284609B0BDE86C
:1025E000F08F96490968096809B9012100E00021C6
:1025F00021B14FF0FF31994A116006E08F49096817
:10260000C968C868954A41681160704710B50446AA
:10261000206B01F0C5F8204601F0C2F810BD70B57E
:10262000054601F017F815B98748006800E028460C
:102630000446201DFFF761FA78B9E06A00EB8000DC
:10264000784951F8200040B994F82C1001208840B6
:102650008049096881437F480160A06A18B104F18C
:102660001800FFF74AFA7A480068401C7849086069
:1026700075480068844209D1211D6E48FFF717FA9A
:1026800077480068401C7649086009E06D4800689A
:10269000401E6C4908602046FFF7B8FFFFF7A1FF16
:1026A00000F0E7FF6948006858B167480068844255
:1026B00007D14FF0805068490860BFF34F8FBFF3D8
:1026C0006F8F70BD2DE9F041002766480068002833
:1026D00063D165480068451C634805608DB957485B
:1026E000D0F8008056480068544908605448C0F843
:1026F00000805E480068401C5C490860FFF771FF7D
:1027000000BF5648006885423BD300BF4B48006875
:10271000006808B9012000E0002020B14FF0FF3030
:102720004E4908602CE045480068C068C468666887
:10273000B54202D24948066022E0201DFFF7DDF9CC
:10274000A06A18B104F11800FFF7D7F994F82C101B
:10275000012088403F49096808433E490860E16A12
:1027600001EB81012F4A02EB8100211DFFF79FF948
:102770003549E06A0968C96A8842C7D30127C5E7B5
:1027800000BF31480068C06A00EB8000254951F85D
:102790002000012800D9012704E035480068401CCA
:1027A000334908603348006800B101273846BDE866
:1027B000F08170B50024002600F04CFF2948006825
:1027C000401E284908600846006800287AD11D4844
:1027D0000068002876D024E01548C068C46804F179
:1027E0001800FFF78AF9201DFFF787F994F82C10DD
:1027F0000120884017490968084316490860E16AC2
:1028000001EB8101074A02EB8100211DFFF74FF91F
:102810000D49E06A0968C96A884202D30120154956
:10282000086029E0C80100202C020020400200209E
:1028300054020020680200207C0200207400002066
:102840007800002080000020700000208C00002014
:102850009C0000208800002004ED00E0A000002083
:102860007C000020A80000208400002098000020A8
:102870009000002094000020FE48006808B9012064
:1028800000E000200028A7D00CB1FFF7AAFEFA480C
:10289000056865B100BFFFF715FF10B10120F749CA
:1028A00008606D1E002DF6D10020F3490860F34842
:1028B000006838B101263007F1490860BFF34F8F37
:1028C000BFF36F8F00F0D5FE304670BD2DE9F041AB
:1028D00005460E46EB480768EB480068001DFFF709
:1028E0000CF950B9E848006890F82C100120884095
:1028F000E64909688143E5480160681C38B936B18A
:10290000E1480168091DE248FFF7D1F81AE07C1997
:10291000DD4800684460BC4207D2DB480168091DFD
:10292000DC480068FFF7CFF80CE0D7480168091DC4
:10293000D9480068FFF7C7F8D8480068844201D238
:10294000D6480460BDE8F081D5480068401CD449F1
:10295000086070472DE9F047044688464FF00009AB
:10296000FFF7F2FFC7480668206800EB08052068FB
:10297000B04207D92068A8420BD9B54209D94FF017
:10298000010906E02068A84201D8B54201D94FF0FC
:1029900001092560B9F1000F03D0A81B0021FFF742
:1029A00095FFFFF706FF07463FB94FF08050B44947
:1029B0000860BFF34F8FBFF36F8FBDE8F08770B52E
:1029C0000446002544B1FFF7BFFF00212046FFF772
:1029D0007DFFFFF7EEFE05463DB94FF08050A84958
:1029E0000860BFF34F8FBFF36F8F70BD70B50446A3
:1029F00000F030FE14B9A448006800E02046064606
:102A0000F56A00F036FE284670BD70B5024600BF7C
:102A1000BF25EFF3118485F31188BFF34F8FBFF308
:102A20006F8F00BF214612B9974C246800E014460E
:102A30002346D86A00BF81F3118800BF70BD2DE91D
:102A4000F04780460D464FF00009052D00D30425C0
:102A500000F000FEB8F1000F02D18B48006800E0E2
:102A600040460446666CAE4256D0B5420BD9864805
:102A7000006884420DD084480068C06AA84208D823
:102A80004FF0010905E080480068844201D14FF011
:102A90000109E76AE16A606C884200D1E562656419
:102AA000A06900F0004010B9C5F10500A06107EB76
:102AB00087017C4A02EB81016069884201D10120D3
:102AC00000E00020E0B1201DFFF717F830B9012029
:102AD000B8406E49096881436C48016094F82C1035
:102AE0000120884069490968084368490860E16A2B
:102AF00001EB81016B4A02EB8100211DFEF7D7FF3C
:102B0000B9F1000F07D04FF080505D490860BFF366
:102B10004F8FBFF36F8F00BF00F0ABFDBDE8F087B4
:102B20005F48006818B10120544908601DE000208A
:102B30005249086055480068B0FA80F0C0F11F01A2
:102B400001EB8102574B03EB8200426852684260FE
:102B500000F108024368934202D142685268426021
:102B60004268D268484B1A6000BF704770B505468E
:102B700000F070FD15B94448006800E0284604469E
:102B8000201DFEF7BAFF78B9E06A00EB80004549E6
:102B900051F8200040B994F82C10012088403B499E
:102BA0000968814339480160A06A18B104F118002E
:102BB000FEF7A3FF211D3648FEF779FF94F8500079
:102BC000012802D1002084F8500000F052FD364860
:102BD000006828B100F03EFDFFF703FD00F049FD5D
:102BE00029480068844217D12F48006840B14FF04F
:102BF000805023490860BFF34F8FBFF36F8F0BE006
:102C00002348006829490968884203D100201E49E9
:102C1000086001E0FFF784FF70BD10B50146002099
:102C20000A461B4C5369A34201D1012300E0002353
:102C300073B1104C936AA34201D1012300E0002339
:102C400033B9936A0BB9012300E0002303B10120DB
:102C500010BD70B505462C465CB10B480068844237
:102C60004CD000F0F7FC2046FFF7D7FFF0B3201D53
:102C70001EE043E054020020900000209400002059
:102C800004ED00E084000020700000208800002097
:102C90007C0200207800002074000020A0000020AA
:102CA000A8000020C80100208C0000208000002027
:102CB000FEF723FF94F82C1001208840F74909689B
:102CC0000843F6490860E16A01EB8101F44A02EB2E
:102CD0008100211DFEF7EBFEF249E06A0968C96A2E
:102CE000884209D34FF08050EF4900E004E00860CB
:102CF000BFF34F8FBFF36F8F00F0BBFC70BD2DE9AA
:102D0000F04106460027344600BFBF21EFF3118093
:102D100081F31188BFF34F8FBFF36F8F00BF05465C
:102D20002046FFF77AFF20B3E0480068E0B9DD49AC
:102D3000E06A0968C96A884200D30127201DFEF7AE
:102D4000DCFE94F82C1001208840D449096808431F
:102D5000D2490860E16A01EB8101D14A02EB8100AE
:102D6000211DFEF7A4FE04E004F11801D048FEF78F
:102D70009EFE00BF85F3118800BF3846BDE8F08194
:102D800010B516E000F066FCCA48C068C468201D93
:102D9000FEF7B3FEC8480068401EC7490860C74830
:102DA0000068401EC549086000F063FC2046FFF73C
:102DB0002DFCC24800680028E4D110BD00BFFFF719
:102DC000DFFFB74800680128F9D94FF08050B649B5
:102DD0000860BFF34F8FBFF36F8FF0E71CB5B848A3
:102DE00000210B468022CDE90010B6A1B748FFF7BD
:102DF000C8FB0446012C14D100BFBF2080F311880A
:102E0000BFF34F8FBFF36F8F00BF4FF0FF30B0495C
:102E100008600120AF4908600020AF49086000F059
:102E200003FC1CBD10B500BFBF2080F31188BFF3A9
:102E30004F8FBFF36F8F00BF0020A649086000F0DE
:102E400008FC10BDA449086870470021A24A106818
:102E50007047994800687047014611B99148006869
:102E600000E00846024602F13400704770B505469E
:102E70000C468C48016818312846FEF724FE0121D3
:102E80002046FFF723FD70BD70B506460C4615467B
:102E900044F000408349096888618248016818311C
:102EA0003046FEF704FE01212846FFF70FFD70BDF6
:102EB00070B50646F068C46804F11800FEF71DFE00
:102EC0007A480068A8B9201DFEF717FE94F82C1068
:102ED0000120884071490968084370490860E16A27
:102EE00001EB81016E4A02EB8100211DFEF7DFFD3F
:102EF00004E004F118016E48FEF7D9FD6949E06A63
:102F00000968C96A884204D901250120734908600B
:102F100000E00025284670BD70B505460E4646F017
:102F200000402860EC682846FEF7E7FD201DFEF70C
:102F3000E4FD94F82C1001208840584909680843A2
:102F400056490860E16A01EB8101554A02EB8100B4
:102F5000211DFEF7ACFD5349E06A0968C96A884241
:102F600002D901205D49086070BD10B5044600F02B
:102F700071FB5B480068206057480068606000F0A3
:102F800078FB10BD564909680160534909684160E2
:102F9000704770B506460C4600F05CFB4E48026870
:102FA0007068131A2068401C08B9002517E04C49C6
:102FB00030680968884204D07068904201D80125C1
:102FC0000DE02068984207D92068C01A206030467A
:102FD000FFF7D8FF002502E000202060012500F067
:102FE00048FB284670BD01203C49086070472D49C8
:102FF0000868704770B505462C460026002D79D02C
:103000002849E06A0968C96A88426CD2A06900F060
:10301000004028B923480068C06AC0F10500A061DB
:10302000E16A01EB81011E4A02EB8101606988427D
:1030300001D1012000E0002050B3201DFEF75DFD0E
:1030400078B9E06A00EB8000154951F8200040B9DA
:1030500094F82C10012088401049096881430F48DA
:10306000016010480068C06AE06294F82C100120EA
:1030700088400A490968084308490860E16A01EB89
:103080008101074A02EB8100211DFEF710FD03E0DC
:1030900004480068C06AE06201262BE08800002036
:1030A000C80100207000002004ED00E0A80000200E
:1030B0005402002068020020800000207C000020D4
:1030C000A400002049444C4500000000BD2D00082C
:1030D000A00000208C00002084000020940000202C
:1030E00098000020FFE7FA49606C0968C96A8842C5
:1030F00000D20126304670BD70B505462C4600262C
:10310000ADB3A06C401EA064616CE06A88422ED012
:10311000A06C60BB201DFEF7F0FC78B9E06A00EB04
:103120008000EC4951F8200040B994F82C1001209F
:103130008840E94909688143E7480160606CE062C2
:10314000E06AC0F10500A06194F82C1001208840CD
:10315000E14909680843E0490860E16A01EB81013F
:10316000DC4A02EB8100211DFEF7A1FC012630465E
:1031700070BD2DE9F04706460F4634464FF0010971
:10318000002E47D0606CB84201D23D4600E0656C2D
:10319000E06AA8423ED0A06C01283BD1D4F82C8034
:1031A000E562A06900F0004010B9C5F10500A0611A
:1031B00008EB8801C74A02EB81016069884201D1AE
:1031C000012000E0002028B3201DFEF796FC78B90E
:1031D000E06A00EB8000BF4951F8200040B994F844
:1031E0002C1001208840BC4909688143BA4801601D
:1031F00094F82C1001208840B74909680843B64963
:103200000860E16A01EB8101B24A02EB8100211DF5
:10321000FEF74DFCBDE8F087AD4909688869AC4907
:103220000968C96AC1F10501A94A1268916170472C
:10323000A748006830B1A649096801F14800896CC7
:10324000491C0160A2480068704770B506460D46EB
:1032500000F000FA9E480068C06C88B901209C49C3
:10326000096881F850005DB101212846FFF72EFB67
:103270004FF0805099490860BFF34F8FBFF36F8FB5
:1032800000F0F7F900F0E6F991480068C46C4CB121
:1032900026B100208E490968C86403E0601E8C498D
:1032A0000968C86400208A49096881F8500000F064
:1032B000E0F9204670BD2DE9F041074688461446E6
:1032C0001D4600F0C7F98248006890F850000228B7
:1032D00018D07F49096801F14C00C96CB9430160FD
:1032E00001207B49096881F850005DB10121284621
:1032F000FFF7ECFA4FF0805078490860BFF34F8F2A
:10330000BFF36F8F00F0B5F900F0A4F91CB170485D
:103310000068C06C20606E48006890F85000022879
:1033200001D0002608E06A49096801F14C00C96C27
:1033300021EA08010160012600206549096881F839
:10334000500000F096F93046BDE8F0812DE9F047D5
:1033500081460D4616461F464FF0010A4C4600F0C6
:1033600079F90FB1E06C386094F85080022084F84D
:103370005000052E17D2DFE806F01503070B0D00ED
:10338000E06C2843E0640EE0E06C401CE0640AE07E
:10339000E56408E0B8F1020F01D0E56401E04FF008
:1033A000000A00E000BF00BFB8F1010F22D1201DCC
:1033B000FEF7A3FB94F82C100120884046490968C9
:1033C000084345490860E16A01EB8101414A02EB8B
:1033D0008100211DFEF76BFB3D49E06A0968C96A5F
:1033E000884207D94FF080503C490860BFF34F8FA7
:1033F000BFF36F8F00F03DF95046BDE8F0872DE92F
:10340000F84F82460D4616461F46DDF828B00120CB
:103410000090544600BFBF21EFF3118081F3118863
:10342000BFF34F8FBFF36F8F00BF81460FB1E06CCA
:10343000386094F85080022084F85000052E17D28E
:10344000DFE806F01503070B0D00E06C2843E0648D
:103450000EE0E06C401CE0640AE0E56408E0B8F1CE
:10346000020F01D0E56401E00020009000E000BF01
:1034700000BFB8F1010F3AD119480068A8B9201D62
:10348000FEF73BFB94F82C10012088401249096894
:10349000084311490860E16A01EB81010D4A02EB22
:1034A0008100211DFEF703FB04E004F118010D4823
:1034B000FEF7FDFA0649E06A0968C96A884216D92A
:1034C000BBF1000F10D00120CBF800000FE000008E
:1034D00070000020C80100208800002004ED00E0FA
:1034E000A80000205402002001203749086000BFD6
:1034F00089F3118800BF0098BDE8F88F2DE9F041ED
:1035000005460E462C4600BFBF21EFF3118081F324
:103510001188BFF34F8FBFF36F8F00BF074694F83A
:103520005080022084F85000E06C401CE064B8F148
:10353000010F2AD125480068A8B9201DFEF7DDFA41
:1035400094F82C100120884021490968084320493B
:103550000860E16A01EB81011E4A02EB8100211D36
:10356000FEF7A5FA04E004F118011B48FEF79FFAE4
:103570001A49E06A0968C96A884206D916B1012069
:10358000306002E001201049086000BF87F3118815
:1035900000BFBDE8F08170B5054615B90F48006859
:1035A00000E02846064600F055F896F8500002283C
:1035B00004D1002086F85000012400E0002400F02F
:1035C00058F8204670BD000094000020A80000209C
:1035D00088000020C8010020540200207000002054
:1035E00000BFBF2080F31188BFF34F8FBFF36F8FF1
:1035F00000BF00BFFEE7001F4FF080730360001F95
:1036000021F001030360001F2D4B0360143802609A
:103610002038704700204FF0E02108618861294878
:10362000486107200861704710B52748006840F4DA
:103630007F00254908600846006840F07F40086028
:10364000FFF7E8FF002021490860FCF7B7FD0020E4
:1036500010BD704700BFBF2080F31188BFF34F8FAC
:10366000BFF36F8F00BF19480068401C17490860FE
:10367000704716480068401E1449086008460068F4
:1036800020B9002080F3118800BF00BF704710B53B
:1036900000BFBF2080F31188BFF34F8FBFF36F8F40
:1036A00000BFFFF70FF820B14FF0805006491C39DA
:1036B000086000BF002080F3118800BF10BD00002B
:1036C000E1350008BFD4010020ED00E0AC0000208F
:1036D000434A22F00700434A10600022414B5A60DF
:1036E00044F2F832404B5A6000221A60014644F21C
:1036F000F8324A601A460A6070472DE9F0410446E4
:103700004FF00008FFF720F93848006820B9FFF7AC
:10371000DFFF01203549086044B1083404F0070098
:1037200020B104F00700C0F108000444002C32D09E
:1037300044F2F83084422ED22A4F3846056801E020
:103740002F462D686868A04202D228680028F7D169
:10375000254885421FD0386800F10808286838607D
:103760006868001B102810D92E196868001B70604B
:103770006C6071681B4800E00068026852688A4209
:10378000FAD302683260066000BF194968680968A8
:10379000081A17490860FFF70CF84046BDE8F081A9
:1037A00070B506463546B6B1083D2C46FFF7CCF855
:1037B00061680C4800E00068026852688A42FAD3E7
:1037C0000268226004600A49606809680844084980
:1037D0000860FEF7EEFF70BD05480068704770474F
:1037E00098020020B0000020B8000020C400002093
:1037F000C000002040EA01039B0703D009E008C98C
:10380000121F08C0042AFAD203E011F8013B00F8A5
:10381000013B521EF9D27047D2B201E000F8012BF1
:10382000491EFBD270470022F6E710B513460A4640
:1038300004461946FFF7F0FF204610BD421E12F85D
:10384000013F002BFBD111F8013B02F8013B002B9B
:10385000F9D17047421C10F8011B0029FBD1801AD6
:10386000704710B5002200E0521C835C8C5CA342C0
:1038700001D1002BF8D1D8B2E1B2401A10BD0346F5
:1038800011F8012B00F8012B002AF9D118467047D6
:1038900030B505460020034600E05B1C934205D28C
:1038A000EC5CC85C201A01D1002CF6D130BD30B5DB
:1038B0000B46014600202022012409E021FA02F5EE
:1038C0009D4205D303FA02F5491B04FA02F5284488
:1038D000151EA2F10102F1DC30BD2DE9F05F0546B5
:1038E000002092469B4688460646814640241BE0BF
:1038F000284641464746224600F0F9F953465A46C3
:10390000C01A914110D311461846224600F0E0F942
:103910002D1A67EB01084F4622460120002100F0D6
:10392000D7F917EB00094E41201EA4F10104DFDC9A
:10393000484631462A464346BDE8F09F2DE9FE4FF2
:10394000804681EA0300C00F0C46009021F0004140
:1039500023F00045B8EB0200A94105D240462146BC
:1039600090461C460B46024623F00040104347D0C9
:10397000270DC7F30A00C3F30A510290401A0190C1
:1039800040286BDAC3F3130040F4801B0098924682
:1039900020B10023D2EB030A63EB0B0B01985946CD
:1039A000C0F14002504600F093F906460D465046DD
:1039B0005946019A00F0ABF910EB08006141002470
:1039C00087EA115284EAE7731A4340D0009A62B33F
:1039D000019A012A4FEA075215DC001B61EB020134
:1039E0004FF0004202EA0752CDE90042001C41F5C7
:1039F000801132462B4600F0ABF903B0BDE8F08FE2
:103A000040462146F9E7001B61EB0201001C41F52D
:103A1000801300185B412018A2F5001747EB030143
:103A200040EAD570B6196D4111E06D084FEA3606CF
:103A300045EAC0754FEA0752001B61EB0201001C0A
:103A400041F5801149084FEA3000001951413246D2
:103A50002B4603B0BDE8F04F00F06BB9009801228F
:103A600040000023D0EB020263EBE0730098214694
:103A70004FEAE074B8EB000061EB0401E9E783F082
:103A800000435BE781F0004158E72DE9FE4F81EAF2
:103A9000030404F0004421F0004100944FF0000BB7
:103AA00023F0004350EA01045ED052EA03045BD0E5
:103AB000C3F30A54C1F30A552C44A4F2F33401941D
:103AC000A0FB0254C1F3130141F48011C3F31303AB
:103AD00043F4801301FB024400FB034E840A970A5F
:103AE00044EA815447EA8357A4FB076802958D0A8C
:103AF00005FB07854FEA932C04FB0C542705029D18
:103B00004FEA065847EA1637B5EB08056EEB070C87
:103B1000870E920E47EA811742EA8312A7FB020141
:103B2000B6EB0B0164EB00042B0D43EA0C335E187B
:103B300044EB1C50DA465146E7FB0201C5F313047F
:103B40004FEA0B3343EA14534FEA0432019C43EA31
:103B50000603A4F10C040294009CCDE900B400F02B
:103B6000F7F803B0BDE8F08F00200146F9E72DE932
:103B7000F04D81EA030404F0004B21F000451446A7
:103B80004FF0000A23F0004150EA050220D054EA29
:103B900001021DD0C5F30A570246C5F31303C1F352
:103BA0001300C1F30A5640F4801543F48013A7EBC9
:103BB0000608101BD64608F2FD3873EB050002D349
:103BC00008F1010801E092185B41B8F1000F03DA37
:103BD00000200146BDE8F08D00204FF4801106461C
:103BE00084460EE0171B73EB050705D3121B63EB2E
:103BF000050306434CEA010C49084FEA30009218CD
:103C00005B4150EA0107EDD152EA030012D082EA8B
:103C1000040083EA0501084305D0101BAB4106D21E
:103C20000122002306E000224FF0004302E06FF083
:103C3000010253101AEB06004CEB085110EB0A007E
:103C400041EB0B01BDE8F04D00F073B8C1F30A522F
:103C5000C1F3130140F2FF3341F480119A4202DABA
:103C600000200146704740F233439A42A2F23342A9
:103C700002DC524200F03BB800F02AB830B5041E16
:103C800071F1000404DB4FF00044404264EB010199
:103C9000141E73F1000405DB1C464FF00043524232
:103CA00063EB0403994208BF904230BD064C074DB8
:103CB00006E0E06840F0010394E8070098471034FC
:103CC000AC42F6D3FCF762FAEC4900080C4A000853
:103CD000202A04DB203A00FA02F1002070479140CC
:103CE000C2F1200320FA03F3194390407047202AC1
:103CF00004DB203A21FA02F00021704721FA02F396
:103D0000D040C2F120029140084319467047202A52
:103D100006DBCB17203A41FA02F043EAE07306E0F3
:103D200041FA02F3D040C2F1200291400843194603
:103D3000704710B5141E73F1000408DA401C41F1FD
:103D4000000192185B411A4301D120F0010010BD1F
:103D50002DE9F04D92469B4611B1B1FA81F202E095
:103D6000B0FA80F220329046FFF7B2FF04460F46C9
:103D700040EA0A0041EA0B0153465A46084313D071
:103D8000114653EA010019D0C8F140025046FFF72E
:103D9000AEFF05460E46504659464246FFF798FF8D
:103DA000084305D0012004E020463946BDE8F08DE7
:103DB0000020054346EAE0762C4337430A98630522
:103DC000E40AA0EB08000022FD0A44EA47540A3046
:103DD00002D500200146E9E7010510196941DDE936
:103DE000084500196941BDE8F04DA2E70FB4084B42
:103DF00010B504A902AA039800F0F0F8044602A93D
:103E0000002000F0EEFC204610BC5DF814FB000022
:103E1000E347000837B514460846064B6A46214674
:103E200000F048F904466946002000F0DFFC204617
:103E30003EBD0000ED47000802E008C8121F08C19F
:103E4000002AFAD170477047002001E001C1121F1B
:103E5000002AFBD1704700002DE9FF5F82B00021EE
:103E6000DDE90430020DDDF840B0034318D044F61C
:103E70001050A2F2FF3242431514119801281FD0AE
:103E8000A5EB0B00401C5FEA000A4FF000064E4F06
:103E9000DFF83891B046504615D5CAF1000413E05A
:103EA000119801244AA3012801D16FEA0B0102985D
:103EB000119AC0E90031C0E9024206B0BDE8F09FA6
:103EC000CBF10000DFE704460021404A491842EBED
:103ED0000450CDE9001012E0E00707D032463B461F
:103EE00040464946FFF7D1FD8046894632463B466B
:103EF00010461946FFF7C9FD06460F466410002C10
:103F0000EAD1DDE90401DDE90023BAF1000F06DAA8
:103F1000FFF7BBFD42464B46FFF7B7FD05E0FFF755
:103F200026FE42464B46FFF722FE04460E4600227E
:103F3000284BFFF7A3FE03D84FF0FF30014607E000
:103F40000022254B20463146FFF7F8FCFFF77EFEA6
:103F5000102409E0002C0ADB0A220023FFF7BDFC35
:103F6000039B30321A55641E50EA0102F2D1641CE0
:103F7000039AC4F111031444119A012A03D00122B7
:103F800008430DD10AE0084304D000204FF0110B84
:103F9000119072E7A3EB0B056D1E0DE05B4504DD90
:103FA0004FF0000205F1010504E003DA4FF00002D2
:103FB000A5F10105002AECD002981199C0E902315F
:103FC000C0E9004579E70000000014400000F03F20
:103FD000300000000000F0430000E03F2DE9F84F02
:103FE0009946924688460546002706E025280AD0CD
:103FF00051464A4690476D1C7F1C28780028F5D111
:104000003846BDE8F88F002315F8011F18462E2901
:1040100015D115F8011F04232A290DD06FF02F02A6
:104020002978A1F13004092C09D800EB800002EBBB
:10403000400008446D1CF3E758F8040B6D1C2A7807
:10404000002ADDD0632A07D0732A0FD010465146CC
:104050004A4690477F1C2AE018F8042B8DF8002070
:1040600000218DF801106E46012103E058F8046B21
:104070004FF0FF315A074FF0000401D409E0641CEF
:1040800084420BDA8C42FADB325D002AF7D105E07C
:10409000641C8C42FCDB305D0028F9D1274404E02D
:1040A00016F8010B51464A469047641EF8D26D1C23
:1040B000A3E700002DE9FF4F95B09B4689460646D1
:1040C00000250FE2252877D100242746F84A012150
:1040D000059400E0044316F8013F203B01FA03F089
:1040E0001042F7D130782A2811D06FF02F033078A2
:1040F000A0F13002092A16D8059A44F0020402EB16
:10410000820203EB42021044761C0590EFE759F857
:10411000042B0592002A03DA504244F4005405901F
:1041200044F00204761C30782E2816D116F8010FC0
:1041300044F004042A280DD06FF02F023078A0F14B
:104140003003092B09D807EB870302EB4303C71899
:10415000761CF3E759F8047B761C30786C280FD076
:1041600006DC4C2817D068280DD06A2814D104E04A
:10417000742810D07A280FD10DE044F400140AE01E
:1041800044F4801401E044F440147278824202D175
:1041900004F58014761C761C307866280BD013DC6E
:1041A000582877D009DC002875D04528F6D0462855
:1041B000F4D047281AD19DE118E0632835D064284F
:1041C00079D0652812D195E1702873D008DC672872
:1041D000F1D069286FD06E280DD06F2806D1B5E0D8
:1041E00073282CD0752875D0782874D05A46179922
:1041F00090476D1C75E1C4F30250022809D00328D2
:104200000DD0D9F8001004280DD00D6009F1040973
:1042100067E1D9F80010EA17C1E90052F6E7D9F8CA
:1042200000100D80F2E70D70F0E719F8041B8DF80F
:10423000001000208DF80100EA46012003E059F843
:1042400004AB4FF0FF3061074FF0000102D40DE0E6
:1042500008F101018846B9420FDA8045F8DB1AF807
:1042600008100029F4D108E008F1010188468142D4
:10427000FADB1AF808100029F6D105985B46A0EB86
:10428000080721463846179A00F094FA284400EBB4
:10429000080507E04DE029E10DE01AF8010B5A4648
:1042A00017999047B8F10108F7D25B462146384686
:1042B000179A13E142E00A220092C4F302524FF02F
:1042C000000A022A08D059F804CB032A4FEAEC71FD
:1042D0000AD00DE029E02AE009F1070121F00702E8
:1042E000F2E802C1914609E00FFA8CFC4FEAEC714A
:1042F000042A03D14FFA8CFC4FEAEC71002907DA4B
:104300000A460021DCF1000C61EB02012D2202E0E3
:10431000220504D52B228DF80420012203E0E207B8
:1043200001D02022F7E7904659E00A2102E010224E
:104330000DE010214FF0000A00910BE010224FF029
:10434000000A44F004040827009203E008224FF01A
:10435000000A0092C4F30252022A05D059F804CB95
:104360000021032A08D009E009F1070121F0070222
:10437000F2E802C1914605E01FFA8CFC042A01D143
:104380000CF0FF0C4FF00008220728D5702806D04B
:10439000009B83F0100353EA0A0305D00EE040228D
:1043A0008DF80420012208E05CEA010206D03022E8
:1043B0008DF804208DF8050002229046009B83F0C2
:1043C000080353EA0A030AD15CEA010201D1620739
:1043D00005D530228DF804204FF001087F1E5828A3
:1043E00004D034A003900EA802900DE036A0F9E7A7
:1043F00053466046009AFFF770FA84460398825C41
:104400000298401E029002705CEA0100F0D102980E
:1044100006A9081A00F1200A600702D524F48034A6
:1044200000E00127574502DDA7EB0A0000E000206D
:1044300000EB0A01009005984144401A0590E00302
:1044400006D45B462146179A059800F0B3F9054457
:10445000002706E001A85A46C05D179990476D1CD9
:104460007F1C4745F6DBE0030CD55B462146179AD7
:10447000059800F09FF9054404E030205A4617994A
:1044800090476D1C0099481E00900029F5DC08E05B
:10449000029802995A460078491C02911799904750
:1044A0006D1CBAF10001AAF1010AF1DC65E100001E
:1044B00009280100303132333435363738396162FA
:1044C00063646566000000003031323334353637BE
:1044D00038394142434445460000000000F058F995
:1044E0000544761C307800287FF4ECAD19B02846DE
:1044F000BDE8F08F620700D4062709F1070222F019
:10450000070CFCE80223E14603F000485FEA080CD0
:1045100002D00FF2702C0DE05FEA045C02D50FF2BE
:10452000682C07E05FEAC47C02D00FF2602C01E047
:10453000AFF2700C4FF0FF3823F00043CDF850C0BD
:1045400065280CD006DC452809D046281DD0472810
:104550003DD13DE0662818D067287ED138E00021A3
:10456000112F01DB112000E0781CCDE9000106A924
:104570000EA8FFF771FCDDE90F010E9A03910021EF
:10458000009207F1010A04914DE04FF000400097BE
:10459000CDE9011006A90EA8FFF75EFCDDE90F02C8
:1045A00003920E9B11990022DDF80CA00093049257
:1045B00011B9791C00EB010AB7EB0A0004D4C0F171
:1045C000FF3007F1010A0490AAEB0700019044E0D4
:1045D000012F00DA01270021112F01DD112000E059
:1045E0003846CDE9000106A90EA8FFF735FCDDE944
:1045F0000F010E9A0391002104910092BA462107FF
:104600000CD40399514500DA8A46BAF1010F05DD51
:10461000009AAAF10101515C302908D0B84202DAAF
:1046200010F1040F06DA0121CDE9011015E0AAF11D
:104630000101E9E7002805DC049901440491AAEB93
:10464000000102E0411C514500DD8A460499401AF0
:10465000401C01904FF000400290200704D40198C4
:10466000504501DBCDF8048000208DF84F00029802
:104670000DF14F07B0F1004F25D02B200E9002987E
:104680004FF0020800280CDA404202902D200E90D4
:1046900007E00A210298FFF70AF93031029007F883
:1046A000011DB8F10001A8F10108F2DC0298002810
:1046B000EFD1791E0E980870307800F0200040F09D
:1046C000450007F8020D12A8C01B00F10708149856
:1046D000007800B1012000EB0A01019801EBE071C4
:1046E00005984144401A401E0590E00306D45B46FD
:1046F0002146179A059800F05DF805441498007853
:1047000018B15A46179990476D1CE00324D55B46B3
:104710002146179A059800F04DF805441CE00498CE
:10472000002807DBDDE90301884203DD0098405CD7
:10473000179901E0179930205A469047049805F1DF
:104740000105401C04900198401E019004D12E20C8
:104750005A46179990476D1CBAF10001AAF1010A57
:10476000DDDC05E017F8010B5A46179990476D1CE0
:10477000B8F10001A8F10108F4DC5B462146179A64
:104780000598ABE62D0000002B0000002000000083
:104790002DE9F041044600251E461746880404D43E
:1047A00005E039462020B0476D1C641EF9D5284627
:1047B000BDE8F0812DE9F041044600251E469046F3
:1047C000C80301D5302700E02027880404D505E080
:1047D00041463846B0476D1C641EF9D52846BDE8F1
:1047E000F0810A68531C0B60107070470A68531CF4
:1047F0000B6010707047000084490008A84800084A
:10480000ED0600080000000088490008D0480008B4
:10481000090700080000000090490008BC48000893
:104820004107000800000000E4490008984900081A
:10483000AF0A000800000000E0490008D049000865
:10484000C4490008C0490008206E6F742072656377
:104850006F676E697365642E20456E7465722027DC
:1048600068656C702720746F2076696577206120F9
:104870006C697374206F6620617661696C61626C2B
:104880006520636F6D6D616E64732E0D0A0000000C
:1048900020094465763A0953544D33324632303557
:1048A00052475436200D0A004E69636520746F200C
:1048B0006D65657420796F75210D0A00436C656123
:1048C00072205465726D696E616C2E0D0A000000D5
:1048D00044657669636520696E666F726D6174699F
:1048E0006F6E2E0D0A00000020094370753A0941D1
:1048F000524D2033322D62697420436F7274657893
:104900002D4D330D0A000000200952616D3A093126
:104910003238202B2034204B6279746573206F6607
:10492000205352414D0D0A0020094D656D3A093161
:10493000204D62797465206F6620466C6173682033
:104940006D656D6F72790D0A0000000020094672D6
:1049500065713A2009313230204D487A206D6178F6
:104960002C31353020444D4950532F312E323520D3
:10497000444D4950532F4D487A0D0A001B5B481B8C
:104980005B4A000068690000696E666F0000000005
:10499000636C6561720000004C6973747320616C14
:1049A0006C207468652072656769737465726564EC
:1049B00020636F6D6D616E64732E0D0A0000000040
:1049C0000D0A00003C5465726D696E616C3E2000FA
:1049D000496E707574207061737377643A000000DB
:1049E0006A68670068656C70000000000C4A000887
:1049F00000000020C8000000383E0008D44A00082B
:104A0000C8000020C8490000483E0008000000001F
:104A1000000000000000000090480008E84800087E
:104A20004C49000828490008084900080000000017
:104A30007C49000800000000284800080000000031
:104A4000000000002C00002000000000000000001A
:104A5000000000000000000000000000010203044C
:104A60000102030406070809000E270700000000E2
:104A7000000000000102030406070809000000000E
:104A80000000000000000000000000000000000026
:104A90000000000000000000000000000000000016
:104AA0000000000000000000000000000000000006
:104AB0000000000000000000AAAAAAAA000000004E
:104AC000000000000000000000000000F8430000AB
:044AD00000000000E2
:040000050800018569
:00000001FF
